:100000000C94C3010C9496160C946B160C94401629
:100010000C9415160C94EA150C94BF150C949415B9
:100020000C9469150C94F4010C94F4010C94F401F3
:100030000C94F4010C94C1160C94F4010C94F4018A
:100040000C94F4010C9424190C94F4010C94F40114
:100050000C94F4010C94F4010C94F4010C94D20E61
:100060000C94F4010C9488170C945E170C94F40112
:100070000C94F4010C94F4010C94F4010C94F4012C
:100080000C94F4010C94F4010C94F4010C94F4011C
:100090000C94F4010C94F4010C94F4010C94BC0A3B
:1000A0000C94F4010C94F4010C94F4010C94F401FC
:1000B0000C94F4010C94F4010C94F4010C94F401EC
:1000C0000C94F4010C94F4010C94F4010C94F401DC
:1000D0000C94F4010C94F4010C94F4010C94F401CC
:1000E0000C94F4011F0E220E110E150E1B0E590E4C
:1000F000260E2A0E300E340E380E3E0E420E460EDE
:10010000590E4C0E500E540E6B18701875187F183F
:100110008918021993189B18A318AD18B718C1189D
:10012000D018DA180219E418EE18F8180C9485089B
:100130000C94B8100C94150E0C94540E0C949C272F
:100140000C94460E0C949B180C941C0F0C94220ECD
:100150000C94B0080C9494080C946B180C945B14D9
:100160000C94EE180C9470180C94C4140C942D1468
:100170000C94D0180C94AD180C9484080C94751839
:100180000C947F180C94FE010C941B0E0C94F81820
:100190000C94E4180C94590E0C9458140C941F0EE3
:1001A0000C94C1180C942C140C9412020C947E1410
:1001B0000C943E0E0C945B080C942A0E0C94DA18E6
:1001C0000C94F6010C94300E0C94A3180C94931814
:1001D0000C9411150C94380E0C94B7180C948918C3
:1001E0000C94A8080C94110E0C945A080C94021943
:1001F0000C94500E0C944C0E0C946A140C941D0F1D
:100200000C948C140C94260E0C94420E0C94DD0865
:100210000C9496270C94340E000020002300260036
:1002200029002C002F00320000010000030106010C
:10023000090100002200250028002B002E003100BB
:10024000340002010000050108010B010505050548
:10025000070508080808020202020A0A080804043E
:10026000040401010101010101010303030303036C
:100270000303040707070C0C0C0C0C0C0C0C0202FB
:10028000020206060606060606060B0B0B0B0B0BF8
:100290000B0B010210202008081020401020408085
:1002A000020102010804020101020408102040803A
:1002B00080402010080402018004020180402010C8
:1002C0000804020108040201010204081020408011
:1002D000010204081020408000000A0B02090C0DE6
:1002E0000E080703040100000000000000000000E9
:1002F00000000000000000000000000000000000FE
:1003000000000000121110000000000000000000BA
:1003100000000000000000000000000000000000DD
:100320002100240027002A002D00300033000101A5
:100330000000040107010A0102CDCCCC3D0AD723FD
:100340003C17B7D13877CC2B329595E6241FB14FA7
:100350000A0000803FCDCCCC3D6F12833A95BFD6CA
:10036000337D1D9026B3CE010C000020410000C853
:100370004200401C4620BCBE4CCA1B0E5AAEC59D56
:1003800074009C27962711241FBECFEFD1E2DEBF59
:10039000CDBF00E00CBF13E0A0E0B2E0E0EDF9E576
:1003A00000E00BBF02C007900D92AA36B107D9F743
:1003B00025E0AAE6B3E001C01D92A33DB207E1F734
:1003C00011E0C2ECD1E000E006C021970109802FC6
:1003D000FE010E94802AC13CD10780E00807A9F7EE
:1003E0000E9494220C94D62C0C94000081E08093FF
:1003F000E303089581E08093E403089540E050E032
:10040000BA018AEB95E00E940A1840E050E060E0F3
:1004100070E88CEB95E00E940A1810923905109252
:10042000DB030895CF93DF932091D60330E0F901E9
:10043000E852FD4F8491F901EE56FD4FD491F90138
:10044000E45BFD4FC491CC23D1F081110E94040ED6
:10045000EC2FF0E0EE0FFF1FE85EFD4FA591B49189
:10046000EC91ED2361F08091D7039091D803A09196
:10047000D903B091DA030196A11DB11D0BC0809183
:10048000D7039091D803A091D903B091DA030197D3
:10049000A109B1098093D7039093D803A093D903FE
:1004A000B093DA03DF91CF910895FC01228133816B
:1004B00021153105C1F084819581468157818417CA
:1004C000950740F0138212820190F081E02D81E0C7
:1004D00080870895AC014F5F5F4F55834483F901D6
:1004E000E80FF91F60830895CF92DF92EF92FF9299
:1004F0000F931F93CF93DF93FC01E480F580C080BE
:10050000D180F60102811381C081D181C017D1074A
:1005100088F40115110541F0209731F0BE01C801A2
:100520000E94CD2C892B49F0FE01219680818111FA
:10053000FBCFECCF80E090E001C0CE01009731F41A
:10054000E00EF11EF601F382E282C801DF91CF9145
:100550001F910F91FF90EF90DF90CF9008954F92F1
:100560005F926F927F929F92AF92BF92CF92DF92F3
:10057000EF92FF920F931F93CF93DF93EC018B01C8
:1005800088818B3231F08D3229F42196AA24A394EC
:1005900002C02196A12C888190ED980F9A3018F016
:1005A0008E3209F03DC1C12CD12C7601FE01819122
:1005B000A0EDBA2EB80E29E02B1528F18AE9C8164D
:1005C00089E9D806E80689E1F806F8F4AAE0B0E07F
:1005D000A70196010E94302A6B017C018B2D90E0CF
:1005E000A0E0B0E0AC01BD014095509560957095DC
:1005F0004C155D056E057F0540F0C80ED91EEA1E3C
:10060000FB1EEF01D3CF882339F0B12CEAE04E2E48
:10061000512C612C712C22C0AA20A9F091E0C9169E
:10062000D104E10490E8F90680F76AE0C801049675
:100630000E94121BF094E094D094C094C11CD11C71
:10064000E11CF11C05C068E0C80104960E94121B61
:10065000F801C082D182E282F382E0C0C114D104E9
:10066000F0E8EF06F10450F0C701B601A3019201D2
:100670000E943B2A69017A01B394F0CFFE0189916F
:1006800090ED980F9A3010F4B394F8CF8E3201F5B4
:10069000EF012196FE012196808170ED972E980E34
:1006A00029E02915A8F08CECC816D8068CE0E806DD
:1006B000F10480F7AAE0B0E0A70196010E94302A79
:1006C0006B017C01C90CD11CE11CF11CBA94E2CF76
:1006D00080818F7D853409F052C081818D3219F47B
:1006E000329651E006C08B3211F0319601C032963D
:1006F00050E0DF01C0E0D0E06AE08B2D0B2C000C55
:10070000990BFD014D9120ED240F2A3090F56C9F3F
:1007100090016D9F300D1124C42F440FDD0BE09725
:10072000C20FD31F9C012C0F3D1F273231054CF304
:10073000C8010496552361F0AA2031F0C12CD12CB8
:10074000E12C60E8F62E13C0C12CD12C76010FC02D
:10075000A11007C0C12CD12C50E8E52E5FE7F52E83
:1007600006C0C12CD12C40E8E42EFF24FA946CE0A2
:100770004EC0552331F0D195C195D10902C0C0E0DA
:10078000D0E0808181114CC0CB0DD11DB7FCDA9532
:10079000C701B6010E9411291C161D06ACF4F12CEC
:1007A000C0FF0CC024E0F29EF0011124E759FC4F79
:1007B00025913591459154910E947229D595C795FF
:1007C000F394209769F718C0D195C195D109F12C00
:1007D000209791F0C0FF0CC024E0F29EF00111249C
:1007E000E75CFC4F25913591459154910E94722907
:1007F000D595C795F394ECCF6B017C01AA2021F02D
:10080000F7FAF094F7F8F0946CE0C80104960E94AF
:10081000121BF801C082D182E282F38281E001C022
:1008200080E0DF91CF911F910F91FF90EF90DF90CB
:10083000CF90BF90AF909F907F906F905F904F90C0
:100840000895CF93DF93DC01EB01EC81FD818A8178
:100850009B810896E817F90718F481E0888722C081
:100860003897FD83EC833097E9F01296CD91DC91B7
:100870001397209751F0CF018C1B9D0B23E095958A
:1008800087952A95E1F78D8303C01196FC93EE932B
:100890001396FC93EE931297158214821782168298
:1008A000CF0102C080E090E0DF91CF9108950097E2
:1008B00039F0FC0194819F7781E019F080E0089580
:1008C00081E00895DC0114962C91149726FF13C043
:1008D000ED91FC91309779F0CB01009751F0258193
:1008E0000197222341F0B8E02B02E00DF11D112405
:1008F000F4CFCF01089580E090E00895FC012581B8
:10090000222331F0F8E02F02800D911D112408956B
:1009100080E090E008958F929F92AF92BF92CF9225
:10092000DF92EF92FF920F931F93CF93DF93CDB798
:10093000DEB7CA52D2400FB6F894DEBF0FBECDBFAD
:10094000CE0101960E9432120E94C60E6B017C01FC
:10095000AE014F5F5F4F60E572E0CE010A960E94E4
:1009600010228C01009749F068E004960E94121B47
:10097000F801C082D182E282F38280917B00877F7E
:1009800080937B0085E480937C0080917A00806472
:1009900080937A0080917A0086FDFCCF8091780068
:1009A0002091790090E08C01122BAE014F5F5F4FD8
:1009B00065E572E0CE010A960E9410227C01009744
:1009C00069F06AE004960E94121BC801110FAA0B7D
:1009D000BB0BF70180839183A283B383C090D703BD
:1009E000D090D803E090D903F090DA03AE014F5FC6
:1009F0005F4F6CE572E0CE010A960E9410228C01D6
:100A0000009749F06AE004960E94121BF801C08228
:100A1000D182E282F382C0906705D0906805E090B1
:100A20006905F0906A05AE014F5F5F4F63E672E0C3
:100A3000CE010A960E941022AC01C701B6010E94A5
:100A4000181B0E94B8106B017C01AE014F5F5F4F15
:100A500068E672E0CE010A960E941022AC01C7013E
:100A6000B6010E94181B8091AA059091AB05CE5E3D
:100A7000DD4F188219821A821B82C251D240CD5F8B
:100A8000DD4F99838883C350D240CB5FDD4F1982FD
:100A90001882C550D24011E0C45FDD4F1883CC509E
:100AA000D24082E090E0C75FDD4F99838883C950D0
:100AB000D240C35FDD4F1883CD50D24002E0C55F06
:100AC000DD4F0883CB50D240BE016A5E7D4FCE0120
:100AD0008D5F9D4F0E94FD0C8093AC05CA5EDD4F7B
:100AE00068817981C651D24083E0769567958A9571
:100AF000E1F77B01EE0CFF1CEE0CFF1C8091AA05B8
:100B00009091AB05CE5EDD4F188219821A821B824E
:100B1000C251D240CD5FDD4F99838883C350D2400C
:100B2000CB5FDD4F19821882C550D240C45FDD4FC4
:100B30001883CC50D24081E090E0C75FDD4F9983AD
:100B40008883C950D240C35FDD4F1883CD50D24057
:100B5000C55FDD4F0883CB50D240BE016A5E7D4F3A
:100B6000CE018D5F9D4F0E94FD0C8093AC05CA5E47
:100B7000DD4F68817981C651D240072E000C880B69
:100B8000990B0E9413292AE037ED43E25CE30E94AF
:100B9000722920E030E04AE754E40E94F52A4B0134
:100BA0005C01B701FF0C880B990B0E9413292FE6FB
:100BB00032E143E85AE30E9472299B01AC01C5016E
:100BC000B4010E94892A6B017C01AE014F5F5F4F27
:100BD00065E772E0CE010A960E941022AC01C701BF
:100BE000B6010E94181B8091AA059091AB05CB5DC0
:100BF000DD4F188219821A821B82C552D240CA5E0A
:100C0000DD4F99838883C651D240C85EDD4F19827B
:100C10001882C851D240C15EDD4F1883CF51D240F7
:100C200085E090E0C45EDD4F99838883CC51D2404B
:100C3000C05EDD4F1883C052D240C25EDD4F0883D4
:100C4000CE51D2404091AE055091AF056091B005B4
:100C50007091B105CE018A5E9D4F0E9477218091EF
:100C6000AA059091AB05CE5EDD4F188219821A82DB
:100C70001B82C251D240CD5FDD4F99838883C35020
:100C8000D240CB5FDD4F19821882C550D240C45F7D
:100C9000DD4F1883CC50D24084E090E0C75FDD4F39
:100CA00099838883C950D240C35FDD4F1883CD50EC
:100CB000D240C55FDD4F0883CB50D240BE01675D97
:100CC0007D4FCE018D5F9D4F0E94FD0C8093AC0542
:100CD000C75DDD4F68817981C952D240072E000C73
:100CE000880B990B0E9413296B017C016091B2055E
:100CF0007091B3058091B4059091B5050E941129BA
:100D00009B01AC01C701B6010E94F52A20E030E04A
:100D10004AE754E40E94F52A6B017C01AE014F5F63
:100D20005F4F6DE772E0CE010A960E941022AC017F
:100D3000C701B6010E94181BAE014F5F5F4F65E807
:100D400072E0CE010A960E941022AC016091DC0391
:100D50007091DD038091DE039091DF030E94181BE8
:100D6000AE014F5F5F4F6EE872E0CE010A960E94BF
:100D700010228C01009781F0E090E003F090E103F5
:100D800068E004960E94121BC701A0E0B0E0F801E1
:100D900080839183A283B383AE014F5F5F4F68E985
:100DA00072E0CE010A960E9410228C01F090DB03C3
:100DB000009769F068E004960E94121B8F2D90E066
:100DC000A0E0B0E0F80180839183A283B38308EEB2
:100DD00013E022E935E042E06BE3809191050E9447
:100DE000D31960919205709193057627672776272E
:100DF000072E000C880B990B0E94132920E030E08D
:100E000040E858E30E9472296B017C01AE014F5FFC
:100E10005F4F60EA72E0CE010A960E941022AC0198
:100E2000C701B6010E94181B22E935E042E06DE3DC
:100E3000809191050E94D31960919205709193055C
:100E4000762767277627072E000C880B990B0E94C0
:100E5000132920E030E040E858E30E9472296B013A
:100E60007C01AE014F5F5F4F67EA72E0CE010A96E8
:100E70000E941022AC01C701B6010E94181B22E992
:100E800035E042E06FE3809191050E94D3196091B3
:100E9000920570919305762767277627072E000C19
:100EA000880B990B0E94132920E030E040E858E3BA
:100EB0000E9472296B017C01AE014F5F5F4F6EEAA9
:100EC00072E0CE010A960E941022AC01C701B60161
:100ED0000E94181B22E935E042E063E4809191050D
:100EE0000E94D31960919205709193057627672728
:100EF0007627072E000C880B990B0E94132920E0FF
:100F000030E04AE753E40E94722920E030E040E0FC
:100F100058E30E9472296B017C01AE014F5F5F4F65
:100F200065EB72E0CE010A960E941022AC01C70167
:100F3000B6010E94181B22E935E042E065E4809189
:100F400091050E94D31960919205709193057627BF
:100F500067277627072E000C880B990B0E94132910
:100F600020E030E04AE753E40E94722920E030E0BC
:100F700040E058E30E9472296B017C01AE014F5F93
:100F80005F4F6BEB72E0CE010A960E941022AC011B
:100F9000C701B6010E94181B22E935E042E067E470
:100FA000809191050E94D3196091920570919305EB
:100FB000762767277627072E000C880B990B0E944F
:100FC000132920E030E04AE753E40E94722920E030
:100FD00030E040E058E30E9472296B017C01AE01D1
:100FE0004F5F5F4F61EC72E0CE010A960E941022C3
:100FF000AC01C701B6010E94181BF0906C05AE0150
:101000004F5F5F4F67EC72E0CE010A960E9410229C
:101010008C01009731F066E004960E94121BF801E3
:10102000F0826091750570917605809177059091B9
:1010300078050E9411296B017C01AE014F5F5F4F63
:101040006EEC72E0CE010A960E941022AC01C7013C
:10105000B6010E94181B85E594E0CD5FDD4F9983B2
:101060008883C350D240CB5FDD4F19821882C550B0
:10107000D240BE016D5F7D4FCE010A960E94E51BF6
:1010800089ED92E00E9468201092E303C65DDD4F77
:101090000FB6F894DEBF0FBECDBFDF91CF911F9189
:1010A0000F91FF90EF90DF90CF90BF90AF909F9007
:1010B0008F900895089508954091B103262F30E050
:1010C000240F311D21323105DCF420913F042430FE
:1010D000C9F4FC0180E090E0861758F43091B10328
:1010E0002191DC01AF56BC4FA30FB11D2C9301968B
:1010F000F3CF8091B103680F6093B10380E008954E
:1011000081E0089582E008950895E0916F03809151
:101110006E03E81730F4F0E0E15EFB4F808190E071
:1011200008958FEF9FEF089590916F0380916E0364
:10113000981750F4E92FF0E0E15EFB4F208130E09A
:101140009F5F90936F0302C02FEF3FEFC901089597
:1011500080916E0390E020916F03821B91090895A6
:10116000CF92DF92EF92FF920F931F93CF93DF9373
:101170007C01CB018A0120914804222389F0EB01F4
:101180006B01C40ED51ECC15DD0569F06991D70140
:10119000ED91FC910190F081E02DC7011995F3CFFD
:1011A000642F0E945C08C801DF91CF911F910F91BD
:1011B000FF90EF90DF90CF900895CF93DF931F9231
:1011C000CDB7DEB76983209148042223D1F0209166
:1011D0004504203240F021E030E0FC0133832283DB
:1011E00080E090E015C080914604E82FF0E0E059DF
:1011F000FC4F998190838F5F8093460480934504D0
:1012000005C061E0CE0101960E945C0881E090E09B
:101210000F90DF91CF9108958FB7F8948091D40308
:101220008FBF0895AF92BF92CF92DF92EF92FF925D
:101230000F931F93CF93DF93EC0188819981892BC2
:1012400031F06EBD0DB407FEFDCFAEB496C08885FB
:101250009985892B11F010E801C011E0BB24B394EB
:10126000862F812309F0B12C062F2C813D814E81E0
:101270005F8160E271EA87E090E00E943B2AF22EF3
:10128000A02EE12CC22ED12CFF2019F0C6010E9405
:10129000960E8A85877FB9F58D858F3FB9F0902F9F
:1012A000912381E009F480E0B81681F0EF85F88998
:1012B0008F89992331F09081892B8083BB24B3944B
:1012C00005C09081809589238083B12CE989FA89B2
:1012D0009081898D892B8083FF2019F0C6010E949F
:1012E000960E8E858F3F39F0EB89FC899081888D31
:1012F000892309F0E12AE989FA899081898D80950D
:10130000892380832CC0E989FA899081898D892B72
:101310008083FF2019F0C6010E94960E8D858F3FB5
:1013200069F0EF85F8898F89902F912319F09081CA
:10133000892B03C09081809589238083E989FA896C
:101340009081898D8095892380838E858F3F39F0A8
:10135000EB89FC899081888D892309F0E12A8E85AB
:101360008F3F09F0AE2C88859985892B21F4110FC8
:1013700011118ACF02C01695FBCF8A2DDF91CF9134
:101380001F910F91FF90EF90DF90CF90BF90AF90A3
:1013900008958CBD9DBD08951F93CF93DF93282F93
:1013A00030E0F901E852FD4F8491F901EE56FD4F0E
:1013B000D491F901E45BFD4FC491CC23C1F0162F09
:1013C00081110E94040EEC2FF0E0EE0FFF1FEE5C87
:1013D000FD4FA591B4919FB7F894111104C08C9161
:1013E000D095D82302C0EC91DE2BDC939FBFDF9118
:1013F000CF911F9108958F929F92AF92BF92CF92FB
:10140000DF92EF92FF920F931F93CF93DF93EC0144
:101410005B016A01490188819981892B31F0EA8158
:10142000FB81808191810E94C90960E08B850E94C7
:10143000CC097401080D191DE016F10639F0F70109
:1014400061917F01CE010E941209F6CF8501CA0C7D
:10145000DB1CC016D10639F0F80161918F01CE0175
:101460000E941209F6CF61E08B850E94CC0981E0D1
:10147000DF91CF911F910F91FF90EF90DF90CF9070
:10148000BF90AF909F908F90089510923F0481E09D
:1014900080931E041092190461E084E10E94CC093B
:1014A00061E085E10E94CC09E9EBF0E080818E7F6C
:1014B000808380818D7F808388E48093B80085E479
:1014C0008093BC000895CF93DF9391E090939003B5
:1014D0008823B9F0C091B800D091BA008091BC00C7
:1014E0008A7B8093BC0060E084E10E94CC0960E0CC
:1014F00085E10E94CC090E94450AD093BA00C093AE
:10150000B800DF91CF91089585ED8093BC00809164
:10151000410490914204A0914304B0914404079681
:10152000A11DB11D23E0B695A795979587952A959E
:10153000D1F72091BC0024FF1CC040914104509180
:1015400042046091430470914404452B462B472B81
:1015500081F30097A105B10541F025E32A95F1F744
:1015600000000197A109B109E4CF809140040C94D7
:10157000630A10923F0408951F920F920FB60F92C4
:1015800011240BB60F922F933F934F935F936F935A
:101590007F938F939F93AF93BF93EF93FF9380912C
:1015A000B900887F803609F49CC068F5883209F458
:1015B0005BC090F4803109F454C038F4882309F4F6
:1015C000F6C0883009F44DC0F6C0883109F44CC02B
:1015D000803209F45DC0EFC0803409F468C048F47B
:1015E000803309F455C0883309F0E5C080931D04A9
:1015F000D8C0803509F44FC0883509F45DC08834FF
:1016000009F0D9C0D6C0883909F4C7C0A8F4883712
:1016100009F467C038F4883609F463C0803709F4E8
:1016200060C0C9C0883809F4B8C0803909F45FC007
:10163000803809F0C0C05BC0803B09F486C038F434
:10164000803A09F466C0883A09F47FC0B4C0803C8F
:1016500009F4A7C0883C09F4A4C0883B09F48AC0F7
:10166000AAC080911A0410C090911C0480911B04A0
:10167000981770F5E0911C0481E08E0F80931C0494
:10168000F0E0E750FC4F80818093BB0085EC86C082
:1016900080931D048EC0E0911C0481E08E0F809326
:1016A0001C048091BB00F0E0E750FC4F80839091D8
:1016B0001C0480911B046EC0E0911C0481E08E0F1D
:1016C00080931C048091BB00F0E0E750FC4F8083C6
:1016D00080911E0481116DC081E08093190484EA19
:1016E00061C083E080933F041092D303CFCF8091F9
:1016F000D303803208F051C0E091D30381E08E0F14
:101700008093D3038091BB00F0E0ED54FC4F8083C5
:10171000BDCF85EC8093BC0010923F048091D30331
:10172000803230F4E091D303F0E0ED54FC4F1082AE
:101730006091D30370E0E0916C03F0916D0383EB53
:1017400093E019951092D30336C084E080933F0450
:101750001092B2031092B103E0916A03F0916B030F
:1017600019958091B103811105C081E08093B10387
:1017700010929103E091B20381E08E0F8093B20347
:10178000F0E0EF56FC4F80818093BB009091B20354
:101790008091B103981708F479CF85E88093BC0055
:1017A0000AC085EC8093BC0010923F0404C01092E4
:1017B0001D040E94840AFF91EF91BF91AF919F9108
:1017C0008F917F916F915F914F913F912F910F90EA
:1017D0000BBE0F900FBE0F901F9018958F929F9287
:1017E000AF92BF92CF92DF92EF92FF920F931F932F
:1017F000CF93DF9310914504113208F0C2C0062F39
:10180000D09147040E94A10E6B017C01C0913F045E
:10181000CC2311F18091410490914204A0914304A2
:10182000B0914404892B8A2B8B2B81F30E94A10E4B
:101830008090410490904204A0904304B0904404EE
:10184000DC01CB018C199D09AE09BF0988169906E8
:10185000AA06BB06D8F681C082E080933F040093BD
:101860001E048FEF80931D0410921C0410931B0420
:10187000A0E7B3E0E9EFF3E080E0181721F09D91D5
:1018800091938F5FFACF10921A0490911A048D2FC2
:10189000880F892B80931A0480911904813089F56F
:1018A000109219040E94A10E6B017C0180911A0410
:1018B0008093BB008091410490914204A091430425
:1018C000B0914404892B8A2B8B2BA9F00E94A10E86
:1018D000009141041091420420914304309144044A
:1018E000DC01CB018C199D09AE09BF090817190746
:1018F0002A073B0790F18091BC0083FDD7CF85EC90
:1019000001C085EE8093BC000E94A10E6B017C019A
:1019100080913F04823039F58091410490914204D6
:10192000A0914304B0914404892B8A2B8B2B81F323
:101930000E94A10E009141041091420420914304A1
:1019400030914404DC01CB018C199D09AE09BF091B
:10195000081719072A073B07D8F6809140040E9410
:10196000630AC5E013C080911D048F3F79F0809118
:101970001D04803241F080911D04803331F0C4E0B9
:1019800005C0C1E003C0C2E001C0C3E0109246043C
:1019900010924504109248048C2FDF91CF911F9133
:1019A0000F91FF90EF90DF90CF90BF90AF909F90FE
:1019B0008F900895FF920F931F93CF93DF93EC01C5
:1019C0008A01F22E89819A81DC01ED91FC910280DD
:1019D000F381E02D19950817190739F46F2D8981C6
:1019E0009A810E94EE0B91E0811190E0892FDF91A6
:1019F000CF911F910F91FF900895AF92BF92CF9218
:101A0000DF92EF92FF920F931F93CF93DF931F927A
:101A10001F92CDB7DEB77C016B019C01255F3F4F64
:101A2000DC0116969C91169717968C9117979983BF
:101A30008A83AD90BC901197A114B10409F44CC0F5
:101A400019964C9150E0F501848195818417950792
:101A500010F410E08FC0808191E09093480480934F
:101A60004704109246041092450420E0BE016F5FC7
:101A70007F4FC5010E94DA0C182F882351F3F5011E
:101A800084819581029728F341E062E080810E9481
:101A90009B2010926F0380936E038230D1F6D501A4
:101AA00011968D919C911297DC01ED91FC9102842D
:101AB000F385E02D1995F7018387D50111968D9156
:101AC0009C911297DC01ED91FC910284F385E02D4D
:101AD0001995F701848731C0D7011296ED91FC91D9
:101AE0001397309709F4B5CF14966D917C911597A3
:101AF00019964C916330710539F4816089839A831A
:101B000050E04F5F5F4F10C06115710511F4906890
:101B100009C06230710511F49F7704C0613071050E
:101B200011F4906C998350E002E010E0BE016F5F09
:101B30007F4FCF010E944922182F1123D9F0F701BE
:101B4000828581110AC0848590E0982F8827D6016C
:101B500011969C938E9323850AC0F701838590E0AC
:101B6000982F8827D60111969C938E932485822BDB
:101B70008D939C93812F0F900F90DF91CF911F91A8
:101B80000F91FF90EF90DF90CF90BF90AF900895AE
:101B9000CF93DF93EC018B8181111EC010926F03F4
:101BA00010926E0310924604109245040E94450A5A
:101BB0008AE598E090936B0380936A038BE598E045
:101BC00090936D0380936C0381E08B83CE010E9420
:101BD000C80D982F882391F0888191E09093480454
:101BE00080934704109246041092450461E0898175
:101BF0009A810E94EE0B91E0811190E0892FDF9194
:101C0000CF9108950E94C82C90E0FC013197E231F9
:101C1000F10508F04EC08827EE58FF4F8F4F0C9407
:101C2000802A809180008F7703C0809180008F7D13
:101C300080938000089580918000877FF9CF84B5DC
:101C40008F7702C084B58F7D84BD08958091B000E8
:101C50008F7703C08091B0008F7D8093B00008958E
:101C6000809190008F7707C0809190008F7D03C096
:101C700080919000877F8093900008958091A000CC
:101C80008F7707C08091A0008F7D03C08091A00056
:101C9000877F8093A0000895809120018F7707C0EF
:101CA000809120018F7D03C080912001877F8093E8
:101CB00020010895CF93DF9390E0FC01EE56FD4F95
:101CC0002491FC01E45BFD4F8491882361F190E055
:101CD000880F991FFC01E25EFC4FC591D491FC0175
:101CE000EE5CFD4FA591B491611109C09FB7F894C6
:101CF0008881209582238883EC912E230BC062304B
:101D000061F49FB7F8948881322F309583238883BC
:101D1000EC912E2B2C939FBF06C08FB7F894E881CF
:101D20002E2B28838FBFDF91CF91089582309105AC
:101D300038F0880F991F880F991F05970197F1F7C1
:101D400008953FB7F8948091EB039091EC03A09134
:101D5000ED03B091EE0326B5A89B05C02F3F19F007
:101D60000196A11DB11D3FBFBA2FA92F982F88271B
:101D7000820F911DA11DB11DBC01CD0142E0660F76
:101D8000771F881F991F4A95D1F708952FB7F894A8
:101D90006091E7037091E8038091E9039091EA0371
:101DA0002FBF08951F920F920FB60F9211242F93F9
:101DB0003F938F939F93AF93BF938091E70390914D
:101DC000E803A091E903B091EA033091E60323E030
:101DD000230F2D3720F40196A11DB11D05C026E863
:101DE000230F0296A11DB11D2093E6038093E70304
:101DF0009093E803A093E903B093EA038091EB0387
:101E00009091EC03A091ED03B091EE030196A11D1A
:101E1000B11D8093EB039093EC03A093ED03B0937B
:101E2000EE03BF91AF919F918F913F912F910F90B2
:101E30000FBE0F901F90189508956093DC03709368
:101E4000DD038093DE039093DF0308959F92AF92AA
:101E5000BF92CF92DF92EF92FF920F931F93CF9397
:101E6000DF93EC018B01E22E0E94EE1FF82E8823F7
:101E7000E1F1CE010E949C1E873209F4B4C024F423
:101E8000823209F4B0C0D3C08B3521F08B3709F40E
:101E900048C0CDC060E4C80104960E94121BF8013E
:101EA0001182108213821282E11005C0C15BDF4FE4
:101EB00085E090E018C01C86CE010E94EE1F8823AA
:101EC000A1F06DE5CE010E94DD1F811144C1EA94AD
:101ED0006D857E85C8010E942104009741F4C15B95
:101EE000DF4F84E090E099838883F12C34C12E2D5C
:101EF00040E0BC01CE010E94260F8823B1F3CE0141
:101F00000E94EE1F882389F36DE5CE010E94DD1F3C
:101F1000811121C16CE2CE010E94DD1F8111D8CF59
:101F20005DC060E2C80104960E94121BF801118294
:101F3000108213821282EE2009F4B8CF1C86CE01E3
:101F40000E94EE1F882389F26DE7CE010E94DD1FFB
:101F5000811101C1EA94E881F981828193819B8397
:101F60008A838481958122813381821B930B9F8395
:101F70008E831D821C82CE010E949C1E873209F432
:101F800075C0823209F472C0CE010E949C1ED82E08
:101F90000E94821E882311F11C866D2DCE010E94A5
:101FA0005502CE010E949C1ED82E0E94821E8111D5
:101FB000F3CF60E0CE010E9455028A819B81892B7C
:101FC00009F48DCFCE010E94EE1F882309F48DCF36
:101FD0006AE3CE010E94DD1F81114EC0C15BDF4F5D
:101FE00083E090E080CFE881F981828193819B83B7
:101FF0008A838481958122813381821B930B9F8305
:102000008E831D821C82CE010E94E81EF82E88233A
:1020100009F46BCFCE010E947402EC0165E0C801A7
:1020200004960E94121BF801D183C08394C0CE0194
:102030000E949C1EB82E6E01FFE0CF0ED11CE12C39
:10204000AC2C9D2C8B2D0E94821E882309F453C03A
:102050008FE3E81609F44FC01C86E394F601B192B1
:102060006F01CE010E949C1EB82EECCFCE010E94C3
:10207000E81E8111A7CF39CF6A817B81F801808169
:1020800091810E94EF1A009711F0BC0113C0CE019C
:102090000E9474026C016D857E85C8010E94210436
:1020A000FC01892B09F41BCF848180688483D7824B
:1020B000C682BF012E2D40E0CE010E94260F88234C
:1020C00009F413CFCE010E94EE1F882309F40DCF2F
:1020D0006DE7CE010E94DD1F81113DC06CE2CE0193
:1020E0000E94DD1F882309F479CFCE010E94EE1FE4
:1020F000811131CFFACEFE01EE0DF11D17868F85CD
:10210000843781F466E0C80104960E94121B81E0C6
:10211000F8018083F4E0EF16F1F0C15BDF4F82E05D
:1021200090E0E1CE863649F466E0C80104960E944C
:10213000121BF8011082F5E0EECF8E3621F484E018
:10214000E812EBCF08C0B8018A2D992D0E94AF028A
:10215000882309F443CF8F2DDF91CF911F910F91E9
:10216000FF90EF90DF90CF90BF90AF909F90089539
:102170002F923F924F925F926F927F928F929F9297
:10218000AF92BF92CF92DF92EF92FF920F931F9385
:10219000CF93DF93CDB7DEB7A2970FB6F894DEBF2B
:1021A0000FBECDBF60E08091BE050E94CC0980E6E5
:1021B0000E94CC198E010F5F1F4F5E0181E1A80EB6
:1021C000B11C780180E00E94CC1990E0A0E0B0E062
:1021D000F70181939193A193B1937F01AE16BF064E
:1021E00089F761E08091BE050E94CC09C12CD12CF9
:1021F0007601F80181919191A191B1918F01FE2C0D
:10220000ED2CDC2CCC24C80ED91EEA1EFB1EEA15D0
:10221000FB0579F70E94C60E4B015C01C701B601B0
:102220000E94132920E030E048E455E40E94F52A9A
:102230002FE832EC45E75DE30E9472299B01AC0177
:102240000E94892A2BED3FE049E450E40E94722964
:102250006B017C01C501B4010E9411299B01AC01F5
:10226000C701B6010E9472296B017C014B015C0120
:102270006093EF037093F0038093F1039093F20364
:102280009B01AC010E94A22B882319F08CED92E0F7
:102290001AC026013701E89477F82FEF3FEF4FE798
:1022A0005FE7C301B2010E94A22B81110FC02FEF83
:1022B0003FEF4FE75FE7C301B2010E940C291816F8
:1022C0002CF480EE92E00E946820A7C02FEF3FEF31
:1022D0004FE75FE4C701B6010E949D2B18161CF45E
:1022E00084EE92E0F0CF2FEF3FEF4FE75FECC701B6
:1022F000B6010E940C2987FDF3CF20E030E0A90150
:10230000C701B6010E940C2987FF0BC06DE285E56D
:1023100094E00E94C41446015701B7FAB094B7F88C
:10232000B0942AE037ED43EA5BE3C501B4010E94B3
:10233000892A4B015C010E946E2B6B017C010E947B
:1023400011299B01AC01C501B4010E94882A4B01EF
:102350005C0119A28E010F5D1F4F0AA3612E2AE0B6
:10236000222E312C412C512CC701B601A201910122
:102370000E943B2A69017A01605DF80162938F0136
:10238000232B242B252B81F7CF010E9468206EE29E
:1023900085E594E00E94C41483E0F82E9AE0292E8B
:1023A000312C412C512CFA94FF20B9F120E030E07F
:1023B00040E251E4C501B4010E9472294B015C0165
:1023C0000E946E2B9B0140E050E019A20AA1162D3D
:1023D000762EC32ED42EE52ECA01B901A201910199
:1023E0000E943B2A605DF80162938F01211531053F
:1023F0004105510589F7CF010E946820672D7C2D8A
:102400008D2D9E2D0E9411299B01AC01C501B401A7
:102410000E94882A4B015C01C6CF89ED92E00E94A0
:1024200068206091EF037091F0038091F103909127
:10243000F203A2960FB6F894DEBF0FBECDBFDF91B8
:10244000CF911F910F91FF90EF90DF90CF90BF90B1
:10245000AF909F908F907F906F905F904F903F9044
:102460002F900895FC010E9691838083938382833D
:10247000009721F09F012E5F3D4F02C020E030E029
:1024800035832483892B21F0CF018E5F9D4F02C0BD
:1024900080E090E0978386831086158608958F925A
:1024A0009F92AF92BF92CF92DF92EF92FF920F93E3
:1024B0001F93CF93DF93CDB7DEB7C356D2400FB68D
:1024C000F894DEBF0FBECDBF8E010F5F1F4FC80156
:1024D0000E94321289819A819C838B838F81988597
:1024E0009E838D8319861E86C45ADD4F1983088307
:1024F000CC55D24088E0FE01E45AFD4FDE01AC5AD3
:10250000BD4F01900D928A95E1F7CC5ADD4F1983AA
:102510000883C455D24088E0FE01EC5AFD4FDE012D
:10252000AD5FBD4F01900D928A95E1F7C55FDD4F1C
:102530001882CB50D24085E594E0C45FDD4F99838B
:102540008883CC50D240C15FDD4F1882CF50D2403B
:10255000C05FDD4F19830883C051D240CE5ADD4F92
:1025600019821882C255D2402AE040E0BE01665F5F
:102570007F4FCE018D5F9D4F0E94260FCE5ADD4FBB
:1025800008811981C255D2400115110579F4C25F45
:10259000DD4F8881CE50D240882331F08E8583FF75
:1025A00003C003E010E002C000E010E01092E4037A
:1025B0000115110509F02BC165E872E0CE010A96FC
:1025C0000E945C200E945704811110C065E872E0EF
:1025D000CE010A960E945C200E9415206093DC03C5
:1025E0007093DD038093DE039093DF036EE872E067
:1025F000CE010A960E945C200E94570481110EC0F1
:102600006EE872E0CE010A960E945C200E941520BE
:102610000E946E2B7093E1036093E00368EE72E01A
:10262000CE010A960E945C200E945704182F811147
:1026300034C068EE72E0CE010A960E945C20FC0174
:10264000892B49F194819F77983061F030F4992378
:1026500011F19630F9F410811EC09A3019F09C30B7
:1026600059F018C011E080819181A281B381892B3A
:102670008A2B8B2B81F40CC011E020E030E0A90103
:1026800060817181828193810E940C29811103C034
:1026900010E001C011E01093E2036EEE72E0CE0193
:1026A0000A960E945C200E9457048111C1C01092BA
:1026B0006B056EEE72E0CE010A960E945C200097D8
:1026C00021F062E070E00E9462040E9415206B011C
:1026D0007C016EEE72E0CE010A960E945C200097AB
:1026E00021F061E070E00E9462040E9415204B011D
:1026F0005C016EEE72E0CE010A960E945C200097AB
:1027000021F060E070E00E9462040E941520609356
:102710005505709356058093570590935805809200
:10272000590590925A05A0925B05B0925C05C09243
:102730005D05D0925E05E0925F05F09260056EEE59
:1027400072E0CE010A960E945C20009721F063E0BF
:1027500070E00E9462040E941520609381057093CE
:10276000820580938305909384056EEE72E0CE011E
:102770000A960E945C20009721F064E070E00E94BD
:1027800062040E941520609367057093680580932A
:10279000690590936A058091610590916205892B86
:1027A00009F446C08091630590916405892B09F472
:1027B0003FC081E080936B050E94C60E00917105B9
:1027C000109172052091730530917405DC01CB01E5
:1027D000800F911FA21FB31F8093790590937A05F4
:1027E000A0937B05B0937C0510926C05109289052F
:1027F00010928A0510928B0510928C0510928D050F
:1028000010928E0510928F051092900511C086EFE0
:1028100092E00E946820000F111FF801E95EFD4F51
:10282000808191810E94682089ED92E00E94682059
:10283000CD59DD4F0FB6F894DEBF0FBECDBFDF918F
:10284000CF911F910F91FF90EF90DF90CF90BF90AD
:10285000AF909F908F9008950895CF92DF92EF925E
:10286000FF920F931F93CF93DF936C017A018B013B
:10287000C0E0D0E0CE15DF0581F0D8016D918D016B
:10288000D601ED91FC910190F081E02DC6011995E2
:10289000892B11F02196EECF7E01C701DF91CF91F8
:1028A0001F910F91FF90EF90DF90CF9008950895C2
:1028B00080E090E00895FC01538D448D252F30E099
:1028C000842F90E0821B930B541710F0CF9608953D
:1028D00001970895FC01918D828D981761F0828D8A
:1028E000DF01A80FB11D5D968C91928D9F5F9F7344
:1028F000928F90E008958FEF9FEF0895FC01918DE6
:10290000828D981731F0828DE80FF11D858D90E052
:1029100008958FEF9FEF0895FC01918D228D892FEF
:1029200090E0805C9F4F821B91098F7399270895D7
:1029300085E594E00E948C1421E0892B09F420E0C5
:10294000822F0895FC01848DDF01A80FB11DA35AC9
:10295000BF4F2C91848D90E001968F739927848FBF
:10296000A689B7892C93A089B1898C9183708064E2
:102970008C93938D848D981306C00288F389E02D83
:1029800080818F7D80830895EF92FF920F931F9334
:10299000CF93DF93EC0181E0888F9B8D8C8D981312
:1029A00005C0E889F989808185FD26C0F62E0B8D4A
:1029B00010E00F5F1F4F0F731127E02E8C8DE81270
:1029C0000CC00FB607FCFACFE889F989808185FF32
:1029D000F5CFCE010E94A214F1CF8B8DFE01E80F3E
:1029E000F11DE35AFF4FF0829FB7F8940B8FEA89ED
:1029F000FB89808180620AC09FB7F894EE89FF89C5
:102A00006083E889F98980818370806480839FBFB7
:102A100081E090E0DF91CF911F910F91FF90EF90B7
:102A20000895CF93DF93EC01888D8823C9F0EA895C
:102A3000FB89808185FD05C0A889B9898C9186FDB7
:102A40000FC00FB607FCF5CF808185FFF2CFA889B4
:102A5000B9898C9185FFEDCFCE010E94A214E7CFFA
:102A6000DF91CF9108950E949814811125C080E0D4
:102A700090E0892B41F080E090E0892B21F00E94CA
:102A8000000081111DC080E090E0892B41F080E0C2
:102A900090E0892B21F00E940000811114C080E099
:102AA00090E0892BA9F080E090E0892B89F00E94CA
:102AB000000081110BC0089581E08093E403D7CF1B
:102AC0000E940000E0CF0E940000E9CF0C940000BB
:102AD00008951F920F920FB60F9211240BB60F920A
:102AE0002F933F934F935F936F937F938F939F9316
:102AF000AF93BF93EF93FF93E0910E02F0910F021B
:102B00001995FF91EF91BF91AF919F918F917F9117
:102B10006F915F914F913F912F910F900BBE0F904E
:102B20000FBE0F901F9018951F920F920FB60F9225
:102B300011240BB60F922F933F934F935F936F9394
:102B40007F938F939F93AF93BF93EF93FF93E09106
:102B50000C02F0910D021995FF91EF91BF91AF9189
:102B60009F918F917F916F915F914F913F912F91A5
:102B70000F900BBE0F900FBE0F901F9018951F92D5
:102B80000F920FB60F9211240BB60F922F933F9313
:102B90004F935F936F937F938F939F93AF93BF9365
:102BA000EF93FF93E0910202F09103021995FF91D8
:102BB000EF91BF91AF919F918F917F916F915F91B5
:102BC0004F913F912F910F900BBE0F900FBE0F9022
:102BD0001F9018951F920F920FB60F9211240BB6EB
:102BE0000F922F933F934F935F936F937F938F93A6
:102BF0009F93AF93BF93EF93FF93E0910002F09107
:102C000001021995FF91EF91BF91AF919F918F9123
:102C10007F916F915F914F913F912F910F900BBEDC
:102C20000F900FBE0F901F9018951F920F920FB626
:102C30000F9211240BB60F922F933F934F935F93F4
:102C40006F937F938F939F93AF93BF93EF93FF9374
:102C5000E0910A02F0910B021995FF91EF91BF915B
:102C6000AF919F918F917F916F915F914F913F9124
:102C70002F910F900BBE0F900FBE0F901F901895C5
:102C80001F920F920FB60F9211240BB60F922F9333
:102C90003F934F935F936F937F938F939F93AF93E4
:102CA000BF93EF93FF93E0910802F0910902199509
:102CB000FF91EF91BF91AF919F918F917F916F9114
:102CC0005F914F913F912F910F900BBE0F900FBED0
:102CD0000F901F9018951F920F920FB60F9211240C
:102CE0000BB60F922F933F934F935F936F937F9306
:102CF0008F939F93AF93BF93EF93FF93E09106025F
:102D0000F09107021995FF91EF91BF91AF919F91BB
:102D10008F917F916F915F914F913F912F910F9084
:102D20000BBE0F900FBE0F901F9018951F920F9221
:102D30000FB60F9211240BB60F922F933F934F9320
:102D40005F936F937F938F939F93AF93BF93EF9313
:102D5000FF93E0910402F09105021995FF91EF9124
:102D6000BF91AF919F918F917F916F915F914F91A3
:102D70003F912F910F900BBE0F900FBE0F901F90A1
:102D800018951F920F920FB60F9211240BB60F9247
:102D90002F933F934F935F936F937F938F939F9363
:102DA000AF93BF93EF93FF938091F5039091F60358
:102DB000A091F703B091F803892B8A2B8B2B49F153
:102DC0009091F40380910000892780930000809106
:102DD000F5039091F603A091F703B091F80318164C
:102DE00019061A061B060CF056C08091F503909147
:102DF000F603A091F703B091F8030197A109B10977
:102E00008093F5039093F603A093F703B093F80330
:102E100042C080911002E8E3F3E0E4919FEF9093C9
:102E20001002E230C9F050F4EE2399F0E13081F560
:102E300090916F009D7F90936F002AC0E43019F14C
:102E4000E0F0E53029F5909173009D7F9093730039
:102E50001FC010926E001CC0909170009D7F9093D7
:102E6000700091E09093B0009091B100987F9460D1
:102E70009093B1001092B3000BC0909171009D7FB0
:102E80009093710005C0909172009D7F90937200A5
:102E900060E00E94CC09FF91EF91BF91AF919F91AB
:102EA0008F917F916F915F914F913F912F910F90F3
:102EB0000BBE0F900FBE0F901F9018951F920F9290
:102EC0000FB60F9211240BB60F922F933F934F938F
:102ED0005F936F937F938F939F93AF93BF93EF9382
:102EE000FF9385E594E00E94A214FF91EF91BF91BA
:102EF000AF919F918F917F916F915F914F913F9192
:102F00002F910F900BBE0F900FBE0F901F90189532
:102F10001F920F920FB60F9211240BB60F922F93A0
:102F20008F939F93EF93FF93E0916504F091660474
:102F30008081E0916B04F0916C0482FD12C090815D
:102F400080916E048F5F8F7320916F04821751F010
:102F5000E0916E04F0E0EB5AFB4F958F80936E0486
:102F600001C08081FF91EF919F918F912F910F90E0
:102F70000BBE0F900FBE0F901F9018950F931F93CD
:102F8000CF93DF93EC010E94C60E0E811F8128852E
:102F900039850617170728073907B8F58A85882362
:102FA000A1F18B859C85AD85BE85892B8A2B8B2BCA
:102FB00061F1E881F98119958B859C85AD85BE8588
:102FC000181619061A061B0684F48F859889A98994
:102FD000BA890197A109B1098F87988BA98BBA8B00
:102FE000892B8A2B8B2B09F41A860E94C60E0A8124
:102FF0001B812C813D81DC01CB01800F911FA21F21
:10300000B31F8E839F83A887B987DF91CF911F91CC
:103010000F9108958F929F92AF92BF92CF92DF92BD
:10302000EF92FF920F931F93CF93DF938C016A016E
:103030007B0120E030E04FE753E4C701B6010E9476
:1030400072294B015C0120E030E0A9010E949D2B18
:1030500018161CF4C501B40103C0C501B401905891
:103060000E94672BEB0120E030E0A901C701B60107
:103070000E949D2B181614F460E001C061E0F80175
:1030800081810E94CC09CF3FD10509F014F4DD27DE
:1030900002C0CFEFD0E0F801108161E0812F0E94E3
:1030A0005A0E209709F4B1C0CF3FD10509F4AFC043
:1030B000E12FF0E0E852FD4FE4918E2F90E0FC010B
:1030C0003197E231F10508F09DC08827EC57FF4F9A
:1030D0008F4F0C94802A84B5806884BDC7BDA7C07B
:1030E00084B5806284BDC8BDA2C080918000806824
:1030F00080938000D0938900C093880098C080910D
:103100008000806280938000D0938B00C0938A00FF
:103110008EC080918000886080938000D0938D0065
:10312000C0938C0084C08091B00080688093B00010
:10313000C093B3007CC08091B00080628093B000E7
:10314000C093B40074C08091900080688093900018
:10315000D0939900C09398006AC0809190008062DB
:1031600080939000D0939B00C0939A0060C08091A0
:103170009000886080939000D0939D00C0939C0045
:1031800056C08091A00080688093A0008091A0002C
:103190008F7B8093A000D093A900C093A80047C064
:1031A0008091A00080628093A000D093AB00C09378
:1031B000AA003DC08091A00088608093A000D093B9
:1031C000AD00C093AC0033C0809120018068809333
:1031D0002001D0932901C093280129C080912001AA
:1031E000806280932001D0932B01C0932A011FC0DD
:1031F00080912001886080932001D0932D01C0939D
:103200002C0115C0C038D10514F460E001C061E0A4
:10321000812FDF91CF911F910F91FF90EF90DF9061
:10322000CF90BF90AF909F908F900C94CC09DF917E
:10323000CF911F910F91FF90EF90DF90CF90BF90B3
:10324000AF909F908F9008951F920F920FB60F929C
:1032500011240BB60F922F933F934F935F936F936D
:103260007F938F939F93AF93BF93EF93FF9380913F
:10327000F30387FF05C0109285001092840016C0EA
:103280002091F303022E000C330B80912E0590E069
:10329000281739075CF43091F30325E03203F0017D
:1032A0001124EE50FB4F808186FD15C08091F30301
:1032B0008F5F8093F3032091F303022E000C330BF6
:1032C00080912E0590E02817390794F48091F3033C
:1032D0008C302CF10DC03091F3033203F001112436
:1032E000EE50FB4F808160E08F730E94CC09DECFEF
:1032F000809184009091850084349C4918F480E486
:103300009CE905C08091840090918500049690937B
:103310008900809388008FEF8093F3032AC0409147
:103320008400509185003091F30325E03203F001D1
:103330001124EE50FB4F81819281840F951F909351
:103340008900809388003091F3033203F001112447
:10335000EE50FB4F808186FF0CC03091F3033203A7
:10336000F0011124EE50FB4F808161E08F730E94C9
:10337000CC09FF91EF91BF91AF919F918F917F9178
:103380006F915F914F913F912F910F900BBE0F90D6
:103390000FBE0F901F9018958EBD00000DB407FE54
:1033A000FDCF8EB508952F923F924F925F926F920C
:1033B0007F928F929F92AF92BF92CF92DF92EF92C5
:1033C000FF920F931F93CF93DF9300D000D0CDB720
:1033D000DEB7D82EC62E4D8379010E94C60E4B0152
:1033E0005C01312C1E82222423949D81892F90E040
:1033F0009C838B832801612C712CED813E1608F093
:1034000046C020924804D09247041092460410927D
:1034100045046C2D89E494E00E94DD0861E089E4B4
:1034200094E00E94EE0B20924804D0924704109240
:103430004604109245046B817C81631971096132E5
:10344000710514F060E270E0613208F060E241E082
:103450008D2D0E949B2010926F0380936E0390919C
:103460006E0380916F03981709F443C0011511058D
:1034700069F10E94C60EDC01CB0188199909AA09DD
:10348000BB0984159505A605B70500F132C00115E5
:103490001105D1F10E94C60EDC01CB0188199909F2
:1034A000AA09BB0920E030E080179107A207B30703
:1034B00058F1FD812F2F30E04E81842F440F990B5E
:1034C000821793070CF58FEF8E831EC0F7012E81B4
:1034D000E20FF11D27FDFA95FA83E98389E494E070
:1034E0000E949408E981FA818083FE81FF5FFE8358
:1034F000B6CF61E089E494E00E94EE0B8D818132C9
:1035000008F080E2380E79CF8E8126960FB6F894B7
:10351000DEBF0FBECDBFDF91CF911F910F91FF9006
:10352000EF90DF90CF90BF90AF909F908F907F9063
:103530006F905F904F903F902F900895BF92CF92E1
:10354000DF92EF92FF920F931F93CF93DF931F921F
:103550001F92CDB7DEB7F82EE62EC42EB22ED02E97
:1035600008EE13E09E012E5F3F4F41E00E94D31909
:10357000882341F14C2D50E04B1951094F5F5F4FAB
:1035800081E090E002C0880F991FBA94E2F701979A
:10359000042E01C0880F0A94EAF72D2D01C0220FD6
:1035A0004A95EAF7382F30959A8193238223892B05
:1035B0008A838983AE014F5F5F4F6E2D8F2D0E94EE
:1035C0007A2001C080E00F900F90DF91CF911F9182
:1035D0000F91FF90EF90DF90CF90BF9008950F93E1
:1035E0001F93CF93DF93EC018B012097A9F06E819D
:1035F0007F816017710781F00115110541F0611598
:10360000710529F0C8010E94CD2C892B29F0CE012B
:103610000E947E04EC01E9CFCE01DF91CF911F9192
:103620000F910895FC0190819078692B6083089533
:10363000CF92DF92EF92FF92CF93DF934115510526
:1036400071F0EA016B017C016CE0CA0104960E94F2
:10365000121BC882D982EA82FB8281E001C080E02D
:10366000DF91CF91FF90EF90DF90CF900895CF93AF
:10367000DF93EC0188819981DC01ED91FC9101904F
:10368000F081E02D19952A813B81820F931F9B8346
:103690008A83DF91CF910895CF93DF93EC018881E6
:1036A0009981DC01ED91FC910280F381E02D199567
:1036B0002A813B81820F931F9B838A83DF91CF9165
:1036C00008958F929F92AF92BF92CF92DF92EF9226
:1036D000FF920F931F93CF93DF93CDB7DEB766971B
:1036E0000FB6F894DEBF0FBECDBF6C018E01095E30
:1036F0001F4F78018AE0882E912CA12CB12CCB0190
:10370000BA01A50194010E943B2A942F852F605D88
:10371000F80162938F01A901692F782F4115510596
:103720006105710561F7A7014E1B5F0BBF01C60163
:103730000E944C1B66960FB6F894DEBF0FBECDBF3D
:10374000DF91CF911F910F91FF90EF90DF90CF907D
:10375000BF90AF909F908F900895EF92FF920F933C
:103760001F93CF93DF93EC017B0162E20E94371B32
:103770008701F80161918F01662379F0E9E4F3E0B4
:10378000F280FF20A1F0329681816813F9CF6CE5B9
:10379000CE010E94371B6F2D0AC062E2CE01DF917D
:1037A000CF911F910F91FF90EF900C94371BCE019A
:1037B0000E94371BDECFFB0101900020E9F7319713
:1037C000AF01461B570B0C944C1B2F923F924F920C
:1037D0005F926F927F928F929F92AF92BF92CF92A1
:1037E000DF92EF92FF920F931F93CF93DF93CDB7AA
:1037F000DEB76C970FB6F894DEBF0FBECDBF8C015D
:103800001B01DC0114968C918F77863009F4B2C0CD
:1038100068F4823008F4C0C0843008F483C0F80132
:1038200060817181C1010E94AD1BB0C08C30B1F0CC
:1038300038F4883009F495C08A3009F47CC0ACC0F3
:10384000803209F447C0803409F0A6C06BE5C1019D
:103850000E94371BD8010D911C9134C0F801C08023
:10386000D180E280F380A7019601C701B6010E94D2
:103870000C29811191C020E030E0A901C701B601F7
:103880000E940C29882309F490C0A7019601C70162
:10389000B6010E94892A9B01AC01C701B6010E94B2
:1038A0000C29811182C078C0B101C8010E94E51BBA
:1038B000C8010E947E048C01892B39F06CE2C101A1
:1038C0000E94371B0115110579F76DE5C1010E94B2
:1038D000371B67C06BE7C1010E94371BD8010D91F0
:1038E0001C9101151105C9F0F80166817781C101AC
:1038F0000E94AD1B6AE3C1010E94371BB101C801E0
:103900000E94E51BC8010E947E048C01892B29F0CE
:103910006CE2C1010E94371BE4CF6DE7C1010E9438
:10392000371B34C0F8014281538160817181C1012C
:103930000E944C1B2BC0F801C080D180E280F38034
:10394000F7FE0CC06DE2C1010E94371B44275527CA
:10395000BA014C195D096E097F0908C0B701A601BB
:1039600005C0F8014081518162817381C1010E94CB
:10397000611B0CC0F8018081882319F06FE573E0AA
:1039800002C064E673E0C1010E94DB1BD101129604
:103990008D919C9113979DC16AE573E0C1010E94CE
:1039A000DB1BF1018281938194C120E030E0A90109
:1039B000C701B6010E940C2987FF08C06DE2C10152
:1039C0000E94371BF7FAF094F7F8F09420E836E9F4
:1039D00048E15BE4C701B6010E949D2B87FD37C01B
:1039E000812C912C70E2A72EB12C188E1F8A840195
:1039F0000C5E1F4FF801E759FC4F25913591459119
:103A00005491C701B6010E949D2B87FD13C0F80198
:103A1000E75CFC4F2591359145915491C701B60162
:103A20000E9472296B017C018F89988D8A0D9B1DE4
:103A3000988F8F8BB594A79494E0891A9108A8EE7B
:103A40008A16AFEF9A0699F699249A9407C040E235
:103A5000A42EB12C55E0952E188E1F8A20E030E060
:103A6000A901C701B6010E949D2B18160CF036C0A3
:103A70002CEA35EC47E257E3C701B6010E940C2956
:103A8000181664F1BFEF9B1649F1E92DF4E0EF023F
:103A900080011124F801EF5AFC4F659175918591D1
:103AA0009491A70196010E949D2B18169CF4F80191
:103AB000E759FC4F2591359145915491C701B601C5
:103AC0000E9472296B017C018F89988D8A199B094C
:103AD000988F8F8BB594A7949A94D4CFC701B601D1
:103AE0000E946E2B4B015C012B013C0106E080E43F
:103AF00092E4AFE0B0E0898F9A8FAB8FBC8F102F2C
:103B000001509AE04916510461047104C8F0698DAE
:103B10007A8D8B8D9C8D2AE030E040E050E00E9451
:103B20003B2A298F3A8F4B8F5C8FC301B2012AE069
:103B300030E040E050E00E943B2A29013A01DFCF0B
:103B4000C501B4010E9411299B01AC01C701B60156
:103B50000E94882A6B017C01698D7A8D8B8D9C8DEA
:103B60000E9411299B01AC01C701B6010E94722974
:103B70002B013C010E946E2B6B017C010E941129DC
:103B80009B01AC01C301B2010E94882A9B01AC01D8
:103B90000E94892A0E946E2BC60ED71EE81EF91EAF
:103BA000898D9A8DAB8DBC8DC816D906EA06FB06A9
:103BB000F8F09FEF891A990AA90AB90AAF89B88D56
:103BC000AB2B99F0BAE08B169104A104B10468F014
:103BD000EF89F88D3196F88FEF8BC12CD12C7601BF
:103BE000812C912C5401839403C0C12CD12C7601DB
:103BF0009AE0492E512C612C712CC701B601A3010A
:103C000092010E943B2A672B682B692B31F4111615
:103C100024F469017A011150F0CFB501A401C1016A
:103C20000E94611B112339F1012F4E01F1E18F0E2A
:103C3000911C54018AE0482E512C612C712C0150AA
:103C400068F0C701B601A30192010E943B2A605DA2
:103C5000D4016E934D0169017A01F1CFB501611B69
:103C600071098EE2FB018293BF01A5014E1B5F0B20
:103C7000C1010E944C1B8F89988D892B09F491CE2C
:103C800065E6C1010E94371BAF89B88DB7FF0AC036
:103C90006DE2C1010E94371B8F89988D91958195A6
:103CA000910902C08F89988DFE0177969F010AE0E5
:103CB00010E0B8010E946C2A805D8293CB010097CE
:103CC000C1F7A9014E1B5F0BBF01C1010E944C1B34
:103CD00068CE6C960FB6F894DEBF0FBECDBFDF91F5
:103CE000CF911F910F91FF90EF90DF90CF90BF90F9
:103CF000AF909F908F907F906F905F904F903F908C
:103D00002F900895982F80ED890F8A3020F081EA56
:103D1000890F8C3110F481E008958FEB890F8A317F
:103D2000D0F39B32C1F381E09D3221F09E3219F035
:103D300080E0089508950895CF92DF92EF92FF9268
:103D40000F931F93CF93DF93EC018C85811134C0C7
:103D500009851A850E94C60ED80118966D937D9329
:103D60008D939C931B97D801ED91FC910284F38570
:103D7000E02DC801199597FF29C00E94C60EF801D1
:103D8000C084D184E284F384DC01CB018C199D09C9
:103D9000AE09BF09C480D580E680F7808C159D05EB
:103DA000AE05BF0500F38FEF9FEF97FF02C080E0E5
:103DB00090E08B8781E08C878B85DF91CF911F917D
:103DC0000F91FF90EF90DF90CF9008959927EDCF5E
:103DD0009F92AF92BF92CF92DF92EF92FF920F939A
:103DE0001F93CF93DF9300D01F921F92CDB7DEB702
:103DF0008C010E949C1ED82EF8011486E12CF12C17
:103E000070EFC72EC8010E949C1EF8011486D816B8
:103E100009F44FC08823C1F08C3509F045C0C801B2
:103E20000E949C1E882381F0853719F0E9E4F3E0B5
:103E300032C0F801148664E0962EA12CB12CC80182
:103E40000E949C1E811106C0F801E15BFF4F82E0D9
:103E500090E00EC0813414F490ED02C08F7D99EC97
:103E6000980F903148F0F801E15BFF4F83E090E05C
:103E70009183808380E090C054E0AA0CBB1C5A95CB
:103E8000E1F7A92AF80114869A949110D8CF21C09D
:103E9000891729F0329690819111FACFE4CF818170
:103EA000882309F3F8011486682FC8010E9455027F
:103EB000A9CF60E0C8010E945502F8018281938178
:103EC000892B29F4E15BFF4F84E090E0D1CF81E0C2
:103ED00063C0C501985D8115944020F47501F3E03D
:103EE000FF2290CFC5019C5D8115944068F4C50107
:103EF00093705701BA2CAA24BB0CBB0C8A299B29AE
:103F0000A0E0B0E0119603C0C501A0E0B0E01982C6
:103F100080389105A105B10530F48A835E0183E004
:103F2000A80EB11C2FC0282F2F7320682A8336E0DB
:103F3000B695A795979587953A95D1F780329105D3
:103F400038F4806C8B835E01E4E0AE0EB11C1AC0C5
:103F5000282F2F7320682B8326E0969587952A9526
:103F6000E1F78031910538F4806E8C835E01F5E0D5
:103F7000AF0EB11C07C080688C83CD825E0126E045
:103F8000A20EB11CF50162915F01662309F43ACFDC
:103F9000C8010E945502F6CF0F900F900F900F901E
:103FA0000F90DF91CF911F910F91FF90EF90DF90D5
:103FB000CF90BF90AF909F9008951F93CF93DF93C2
:103FC000EC01162F0E949C1E811303C01C8681E009
:103FD00001C080E0DF91CF911F910895CF93DF93CF
:103FE000EC01CE010E949C1E8B302CF48930B4F47D
:103FF000882331F015C08D3089F0803289F40EC0ED
:104000008885811103C081E090E002C082E090E0E9
:10401000C15BDF4F9983888380E004C01C86E1CFB9
:1040200081E08887DF91CF910895CF93DF9300D00F
:104030001F921F92CDB7DEB7009799F1FC018481E2
:104040008F778630D9F078F4843058F1808191816F
:104050001D82BE016F5F7F4F0E94AF02CE010196AD
:104060000E94152021C08A3081F08C30A9F0883060
:10407000C1F4608171818281938104C0608170E0AC
:1040800080E090E00E9411290FC0608171818281DF
:1040900093810E94132908C060817181828193817C
:1040A00003C060E070E0CB010F900F900F900F9075
:1040B0000F90DF91CF910895FC01248125FF05C069
:1040C000808191810E94EF1A089580E090E0089528
:1040D000009769F0FC0101900020E9F73197AF01EA
:1040E000481B590BBC0185E594E00C942D1480E02D
:1040F00090E00895CF93DF93EA0191E09093480414
:1041000080934704109246041092450489E494E099
:104110000E94DD08688189E494E00E94DD0861E086
:1041200089E494E00E94EE0B91E0811190E0892FE8
:10413000DF91CF9108958F929F92AF92BF92CF92CD
:10414000DF92EF92FF920F931F93CF93DF93F82E9E
:10415000D62FE42E613208F0BBC00E94A10E4B01A5
:104160005C01C0913F04CC2331F1809141049091D6
:104170004204A0914304B0914404892B8A2B8B2BD9
:1041800081F30E94A10E00914104109142042091FC
:10419000430430914404DC01CB0188199909AA0930
:1041A000BB09081719072A073B07D8F68091400476
:1041B0000E94630A8DC081E080933F04E0921E0458
:1041C0009FEF90931D0410921C049D0F90931B046D
:1041D00080931A0490911A048F2D880F892B809355
:1041E0001A0480911904813089F5109219040E94F3
:1041F000A10E6B017C0180911A048093BB00809119
:10420000410490914204A0914304B0914404892B4D
:104210008A2B8B2BA9F00E94A10E809041049090D4
:104220004204A0904304B0904404DC01CB018C19FB
:104230009D09AE09BF0988169906AA06BB0690F12A
:104240008091BC0083FDD7CF85EC01C085EE8093C3
:10425000BC000E94A10E6B017C0180913F04813063
:1042600031F58091410490914204A0914304B091B2
:104270004404892B8A2B8B2B81F30E94A10E809002
:10428000410490904204A0904304B0904404DC01A7
:10429000CB018C199D09AE09BF0988169906AA069B
:1042A000BB06D8F6809140040E94630A12C0809138
:1042B0001C048D1710F4D0911C04E9EFF3E0AFE17A
:1042C000B4E0C0E0CD1729F081918D93CF5FFACF94
:1042D000C0E08C2FDF91CF911F910F91FF90EF9055
:1042E000DF90CF90BF90AF909F908F900895CF9226
:1042F000DF92EF92FF920F931F93CF93DF931F9262
:104300001F92CDB7DEB7FC014787508B618B728B54
:104310008285882311F0448701C04387452F562F9B
:10432000672F7727882311F0438701C044877F01D7
:104330008BE0E80EF11C9681878199838A83C08087
:10434000D180C114D104B1F1018510E098012E5F34
:104350003F4FD60114968D919C9115978217930724
:1043600010F480E052C0F601808191E090934804FF
:1043700080934704109246041092450401151105DC
:1043800041F421E042E050E0B701C6010E94DA0C9E
:104390003CC081819281DC01ED91FC910280F3812E
:1043A000E02DA801BE016F5F7F4F1995081719070F
:1043B000C1F6E7CFA281B381109799F224813581AC
:1043C00001852330310539F48E7F89839A8310E08B
:1043D0000F5F1F4F11C02115310511F49F770AC0DF
:1043E0002230310511F4906805C02130310519F4EF
:1043F0009F779064998310E09E012F5F3F4F42E0CA
:1044000050E0B701CD010E94FB090F900F90DF91A2
:10441000CF911F910F91FF90EF90DF90CF90089573
:10442000EF92FF920F931F93CF93DF93EC018B01D9
:104430007A018C818F7749F460E2CE0104960E9464
:10444000121B198218821B821A828C8185FF18C068
:1044500001151105A9F0B801888199810E94EF1A10
:10446000009781F4B701CE010E942104FC01892B41
:1044700039F084818F77848317830683CF0102C04C
:1044800080E090E0DF91CF911F910F91FF90EF902E
:1044900008958F929F92AF92BF92CF92DF92EF9248
:1044A000FF920F931F93CF93DF93EC014B016A01AF
:1044B000590188819981892B31F0EA81FB818081C2
:1044C00091810E94C90960E08B850E94CC0974012A
:1044D000C80CD91CEC14FD0439F0F70161917F017F
:1044E000CE010E941209F6CF75010A0D1B1D0E1593
:1044F0001F0541F06FEFCE010E941209F701819371
:104500007F01F5CF61E08B850E94CC0981E0DF91CE
:10451000CF911F910F91FF90EF90DF90CF90BF90C0
:10452000AF909F908F900895CF93DF93CDB7DEB774
:10453000A6970FB6F894DEBF0FBECDBF789484B5B2
:10454000826084BD84B5816084BD85B5826085BD8F
:1045500085B5816085BD80916E00816080936E001D
:10456000109281008091810082608093810080910F
:1045700081008160809381008091800081608093C0
:1045800080008091B10084608093B1008091B00080
:1045900081608093B000809191008260809391004F
:1045A0008091910081608093910080919000816062
:1045B000809390008091A10082608093A1008091FF
:1045C000A10081608093A1008091A0008160809310
:1045D000A0008091210182608093210180912101BE
:1045E000816080932101809120018160809320016E
:1045F00080917A00846080937A0080917A00826052
:1046000080937A0080917A00816080937A00809113
:104610007A00806880937A001092C100E09165046E
:10462000F091660482E08083E0916104F09162047D
:104630001082E0916304F091640480E18083109221
:104640006D04E0916904F0916A0486E08083E09152
:104650006704F0916804808180618083E091670441
:10466000F0916804808188608083E0916704F09114
:104670006804808180688083E0916704F091680419
:1046800080818F7D808361E08091A1050E945A0E18
:1046900060E08091A1050E94CC0960E08091A005B6
:1046A0000E945A0E8091AA059091AB05892BA9F41E
:1046B00086E090E00E94A72BFC018091AD058083ED
:1046C00089E494E092838183138280E290E0958371
:1046D0008483F093AB05E093AA05E090AA05F090DF
:1046E000AB0510926F0310926E0310924604109265
:1046F00045040E94450A8AE598E090936B038093F5
:104700006A038BE598E090936D0380936C0311E04E
:10471000D70113961C93C7010E94C80D882309F482
:104720005BC080E090E1A0E0B0E08093AE059093A4
:10473000AF05A093B005B093B1058AE090E0A0E08A
:10474000B0E08093B2059093B305A093B405B09305
:10475000B50580E090E0A0E0B0E48093B6059093CA
:10476000B705A093B805B093B9058091AA059091BB
:10477000AB051BA21CA21DA21EA29D8B8C8B1F8AA7
:104780001E8A1D8F85E090E09B8F8A8F1E8F02E02E
:104790000C8F40E050E160E070E0CE0144960E9452
:1047A00077218091AA059091AB05188A198A1A8AF7
:1047B0001B8A9A8389831C821B821A8718861F8210
:1047C0001B8709874FE959E360E070E0CE0101964D
:1047D0000E9477218093AC0500EA15E07801512C06
:1047E00041E8642E42E0742E57EC852E52E0952E5F
:1047F0006BECC62E67E0D62E7BE8A72EBB24B394C5
:10480000F70194818281D8015A968C935A975B96CE
:104810009C9361E00E945A0E61E0F801838D0E9432
:104820005A0ED70118969C91189716968C91F801FC
:10483000868F978F61E00E945A0E60E0D8015F96E4
:104840008C910E945A0E61E0F801868D0E94CC097D
:104850004FB6F8948091E503811126C0F30184914D
:10486000F4012491E82FF0E0EE0FFF1FE25EFC4F11
:10487000A591B4919C91822F892321F461E085E375
:104880000E94CC0961E085E30E945A0E8CB58061DC
:104890008CBD8CB580648CBD61E084E30E945A0EAF
:1048A00061E083E30E945A0E8091E5038F5F80935D
:1048B000E5034FBEC6010197F1F760E0D8015E96AF
:1048C0008C910E94CC0988E80E94CC1983E00E9458
:1048D000CC1961E0F801868D0E94CC09C6010197D0
:1048E000F1F760E0D8015E968C910E94CC0988E9CE
:1048F0000E94CC1980E00E94CC1980E00E94CC1963
:1049000080E00E94CC1980E00E94CC1961E0F8019F
:10491000868D0E94CC09C5010197F1F760E0D801AE
:104920005E968C910E94CC0980EE0E94CC1961E0C9
:10493000F801868D0E94CC095394FFEFEF1AFF0A0D
:104940000E5F1F4F82E058125BCF01E023E042E090
:104950006BE6809191050E949E1A00E022E044E0FF
:104960006BE1809191050E949E1A22E044E06CE187
:10497000809191050E949E1AF090910508EE13E037
:104980009E012C5E3F4F41E06BE68F2D0E94D319B4
:104990008C898F7B8C8B8983AE014F5F5F4F6BE679
:1049A0008F2D0E947A205092D50383E08093D60306
:1049B00062E082E00E945A0E62E08091D6030E947B
:1049C0005A0E9091D503923009F4B1C1933009F495
:1049D000B0C18EEE890F843068F487E1891BAAC1CB
:1049E000823009F0C8C1809169008C7F8260809319
:1049F0006900E89A84E690E0A0E0B0E08093440586
:104A000090934505A0934605B093470586EF91E046
:104A1000909343058093420581E080934C050E946A
:104A2000C60E009144051091450520914605309130
:104A30004705DC01CB01800F911FA21FB31F80939C
:104A4000480590934905A0934A05B0934B05809182
:104A50004D0590914E05A0914F05B0915005809362
:104A6000510590935205A0935305B09354058EEFD2
:104A700091E09093300580932F0580E090E0A0E8CE
:104A8000BEE38093550590935605A0935705B093C8
:104A900058058DEC9CECACECBDE3809359059093EC
:104AA0005A05A0935B05B0935C0510925D051092CA
:104AB0005E0510925F051092600588EB90E190937F
:104AC0006205809361058DE19FE09093640580937A
:104AD00063058CE19FE090936605809365058FE602
:104AE00092E1A3E8BAE38093810590938205A093B5
:104AF0008305B093840588EC90E0A0E0B0E080935B
:104B0000710590937205A0937305B09374058DECB5
:104B10009CECACE4BEE380936D0590936E05A0938E
:104B20006F05B093700511E08091E40381110E943C
:104B30004F128091E30381110E948B048091E20364
:104B4000882309F463C08091E0039091E103A0E021
:104B5000B0E08093310590933205A0933305B09374
:104B6000340580912F0590913005892B51F11093D8
:104B700039050E94C60EC0903105D0903205E090F4
:104B80003305F0903405DC01CB018C0D9D1DAE1D6D
:104B9000BF1D8093350590933605A0933705B093DC
:104BA000380580913A0590913B05A0913C05B09164
:104BB0003D0580933E0590933F05A0934005B0933B
:104BC000410581E090E0A0E0B0E080933A05909349
:104BD0003B05A0933C05B0933D05C090DC03D0900D
:104BE000DD03E090DE03F090DF03B701A6018AEB5E
:104BF00095E00E940A18B701A60170588CEB95E069
:104C00000E940A181092E2031093DB0382E495E0FD
:104C10000E94BE178FE295E00E94BE1780E090E0F0
:104C2000A0E2B1E48093550590935605A0935705F3
:104C3000B09358058093590590935A05A0935B054E
:104C4000B0935C0580935D0590935E05A0935F052E
:104C5000B09360050E94C60EC0907905D0907A0589
:104C6000E0907B05F0907C056C157D058E059F0519
:104C700008F45AC080916B05882309F455C00E943E
:104C8000C60EC0907105D0907205E0907305F0904B
:104C90007405DC01CB018C0D9D1DAE1DBF1D8093E5
:104CA000790590937A05A0937B05B0937C05C0901D
:104CB0006705D0906805E0906905F0906A05E0917D
:104CC0006105F091620519959B01AC01C701B60120
:104CD0000E94882A6B017C019F7720918105309189
:104CE000820540918305509184050E940C2987FF1D
:104CF0005EC010936C0510926B05E0916505F09114
:104D00006605309709F019958091790590917A059B
:104D1000A0917B05B0917C0580937D0590937E05E5
:104D2000A0937F05B09380050E943315FDCE80E0EF
:104D300001C081E0E82FF0E0EE0FFF1FE050FE4FD2
:104D400022E132E031832083833041F48091690095
:104D5000837F886080936900E99A4CCE843098F410
:104D6000813009F03DCE80916A00837F8860809316
:104D70006A00ED9A3FCE80916A008C7F82608093BA
:104D80006A00EC9A37CE843041F4809169008F7CC0
:104D9000806280936900EA9A2DCE853061F7809118
:104DA00069008F73806880936900EB9A23CE20900E
:104DB0006305309064050E94C60E80907D0590903A
:104DC0007E05A0907F05B0908005DC01CB0188199D
:104DD0009909AA09BB098093750590937605A0935C
:104DE0007705B09378052091890530918A05409127
:104DF0008B0550918C05C701B6010E94892A6093EA
:104E0000890570938A0580938B0590938C0580901B
:104E1000850590908605A0908705B0908805A5012E
:104E200094010E949D2B181644F48092890590925B
:104E30008A05A0928B05B0928C05B7FAB094B7F8AA
:104E4000B094A50194016091890570918A058091C3
:104E50008B0590918C050E940C2987FF08C08092D9
:104E6000890590928A05A0928B05B0928C0580905E
:104E70006D0590906E05A0906F05B0907005209123
:104E8000890530918A0540918B0550918C05609180
:104E9000590570915A0580915B0590915C050E94BF
:104EA0007229A50194010E9472292B013C012091D5
:104EB0005505309156054091570550915805C70149
:104EC000B6010E9472299B01AC01C301B2010E948C
:104ED000892A2B013C0120918D0530918E0540914E
:104EE0008F0550919005C701B6010E94882A209134
:104EF0005D0530915E0540915F05509160050E940F
:104F00007229A50194010E94F52A9B01AC01C301FD
:104F1000B2010E94892AC0928D05D0928E05E0923E
:104F20008F05F0929005F1011995EECE8091AA05BA
:104F30009091AB050C943F2C10924C0410924B04B2
:104F400088EE93E0A0E0B0E080934D0490934E048F
:104F5000A0934F04B093500420E332E030934A040E
:104F600020934904109258041092570480935904D6
:104F700090935A04A0935B04B0935C0482E492E0A3
:104F8000909356048093550485EC90E090936204CE
:104F90008093610484EC90E09093640480936304B4
:104FA00080EC90E0909366048093650481EC90E03F
:104FB000909368048093670482EC90E090936A0475
:104FC0008093690486EC90E090936C0480936B046A
:104FD00010926E0410926F0410927004109271047B
:104FE0008CE08093A00584E28093A10585E0809306
:104FF000A20596E09093A3059EE19093A4059FE1FE
:105000009093A50592E29093A60593E29093A7054D
:1050100094E49093A80595E49093A9051092AB05AC
:105020001092AA0590E49093AD051092B2051092EB
:10503000B3051092B4051092B5051092B605109202
:10504000B7051092B8051092B90598E0E3E2F2E0D6
:10505000A2ECB5E001900D929A95E1F740E050E0A6
:1050600060EA70E44093CA055093CB056093CC0589
:105070007093CD05E0912E05EC3080F491E09E0F09
:1050800090932E05E093CE058E9FF0011124EE50F3
:10509000FB4F88EB9BE09283818303C08FEF80936B
:1050A000CE0588E68093910510925505109256051D
:1050B00010925705109258051092590510925A05F2
:1050C00010925B0510925C0510925D0510925E05D2
:1050D00010925F05109260051092620510926105B2
:1050E0001092640510926305109266051092650592
:1050F00010926705109268051092690510926A0572
:1051000010926B0510926C051092790510927A0539
:1051100010927B0510927C0510927D0510927E0501
:1051200010927F051092800580E090E0A0EAB0E444
:105130008093810590938205A0938305B0938405A5
:1051400080E090E0A8ECB2E480938505909386051A
:10515000A0938705B09388051092890510928A055F
:1051600010928B0510928C0510928D0510928E0571
:1051700010928F05109290051092440510924505EB
:105180001092460510924705109248051092490565
:1051900010924A0510924B058FEF9FEFDC01809330
:1051A0004D0590934E05A0934F05B0935005809305
:1051B000510590935205A0935305B0935405109256
:1051C0004C05109243051092420510923105109241
:1051D0003205109233051092340510923505109265
:1051E0003605109237051092380580933A05909352
:1051F0003B05A0933C05B0933D0580933E059093FD
:105200003F05A0934005B0934105109239051092D7
:10521000300510922F0508950E944E2908F481E070
:105220000895E89409C097FB3EF490958095709599
:1052300061957F4F8F4F9F4F9923A9F0F92F96E9E2
:10524000BB279395F695879577956795B795F11157
:10525000F8CFFAF4BB0F11F460FF1BC06F5F7F4FF4
:105260008F4F9F4F16C0882311F096E911C0772306
:1052700021F09EE8872F762F05C0662371F096E80F
:10528000862F70E060E02AF09A95660F771F881FDE
:10529000DAF7880F9695879597F90895990F000882
:1052A000550FAA0BE0E8FEEF16161706E807F907F8
:1052B000C0F012161306E407F50798F0621B730B93
:1052C000840B950B39F40A2661F0232B242B252B14
:1052D00021F408950A2609F4A140A6958FEF811DB7
:1052E000811D08950E9485290C94F6290E94E829C1
:1052F00038F00E94EF2920F0952311F00C94DF295B
:105300000C94E52911240C942A2A0E94072A70F390
:10531000959FC1F3950F50E0551F629FF001729F5A
:10532000BB27F00DB11D639FAA27F00DB11DAA1F69
:10533000649F6627B00DA11D661F829F2227B00DB6
:10534000A11D621F739FB00DA11D621F839FA00D41
:10535000611D221F749F3327A00D611D231F849F91
:10536000600D211D822F762F6A2F11249F575040E8
:105370009AF0F1F088234AF0EE0FFF1FBB1F661F63
:10538000771F881F91505040A9F79E3F510580F02C
:105390000C94DF290C942A2A5F3FE4F3983ED4F35F
:1053A000869577956795B795F795E7959F5FC1F7D0
:1053B000FE2B880F911D9695879597F9089597F97B
:1053C0009F6780E870E060E008959FEF80EC0895AB
:1053D00000240A94161617061806090608950024D4
:1053E0000A9412161306140605060895092E03944E
:1053F000000C11F4882352F0BB0F40F4BF2B11F4C2
:1054000060FF04C06F5F7F4F8F4F9F4F089557FD20
:105410009058440F551F59F05F3F71F04795880F22
:1054200097FB991F61F09F3F79F0879508951216B9
:1054300013061406551FF2CF4695F1DF08C0161665
:1054400017061806991FF1CF869571056105089416
:105450000895E894BB2766277727CB0197F908952D
:105460000E945D2AA59F900DB49F900DA49F800D72
:10547000911D11240895A1E21A2EAA1BBB1BFD0148
:105480000DC0AA1FBB1FEE1FFF1FA217B307E40723
:10549000F50720F0A21BB30BE40BF50B661F771F7B
:1054A000881F991F1A9469F760957095809590955B
:1054B0009B01AC01BD01CF010895A29FB001B39F34
:1054C000C001A39F700D811D1124911DB29F700D0D
:1054D000811D1124911D0895AA1BBB1B51E107C01A
:1054E000AA1FBB1FA617B70710F0A61BB70B881F74
:1054F000991F5A95A9F780959095BC01CD01089503
:10550000EE0FFF1F881F8BBF0790F691E02D1994B7
:105510005058BB27AA270E94A02A0C94F6290E9463
:10552000E82938F00E94EF2920F039F49F3F19F460
:1055300026F40C94E5290EF4E095E7FB0C94DF29A2
:10554000E92F0E94072A58F3BA17620773078407E6
:10555000950720F079F4A6F50C94292A0EF4E0952D
:105560000B2EBA2FA02D0B01B90190010C01CA011D
:10557000A0011124FF27591B99F0593F50F4503EC8
:1055800068F11A16F040A22F232F342F4427585FBA
:10559000F3CF469537952795A795F0405395C9F7D2
:1055A0007EF41F16BA0B620B730B840BBAF091508A
:1055B000A1F0FF0FBB1F661F771F881FC2F70EC029
:1055C000BA0F621F731F841F48F4879577956795FC
:1055D000B795F7959E3F08F0B0CF9395880F08F0E8
:1055E0009927EE0F9795879508950E94092B0C94A3
:1055F000F6290E94EF2958F00E94E82940F029F48A
:105600005F3F29F00C94DF2951110C942A2A0C9445
:10561000E5290E94072A68F39923B1F3552391F3F2
:10562000951B550BBB27AA2762177307840738F011
:105630009F5F5F4F220F331F441FAA1FA9F335D06E
:105640000E2E3AF0E0E832D091505040E695001C22
:10565000CAF72BD0FE2F29D0660F771F881FBB1FDC
:10566000261737074807AB07B0E809F0BB0B802DBA
:10567000BF01FF2793585F4F3AF09E3F510578F0E6
:105680000C94DF290C942A2A5F3FE4F3983ED4F36C
:10569000869577956795B795F7959F5FC9F7880FBA
:1056A000911D9695879597F90895E1E0660F771F0C
:1056B000881FBB1F621773078407BA0720F0621B9D
:1056C000730B840BBA0BEE1F88F7E09508950E94C8
:1056D0006E2B6894B1110C942A2A08950E940F2A07
:1056E00088F09F5798F0B92F9927B751B0F0E1F0A3
:1056F000660F771F881F991F1AF0BA95C9F714C053
:10570000B13091F00E94292AB1E008950C94292A21
:10571000672F782F8827B85F39F0B93FCCF386958B
:1057200077956795B395D9F73EF4909580957095E8
:1057300061957F4F8F4F9F4F08950E944E2908F427
:105740008FEF08950E944E29880B990B08950F93AF
:105750001F93CF93DF938230910510F482E090E0A5
:10576000E091D105F091D20520E030E0A0E0B0E07A
:10577000309719F1408151810281138148175907EF
:10578000C8F08417950769F4109731F012960C93BE
:10579000129713961C9327C00093D1051093D2053E
:1057A00022C02115310519F04217530718F49A0148
:1057B000BD01EF01DF01F801DBCF21153105F9F063
:1057C000281B390B2430310580F48A819B816115B7
:1057D000710521F0FB019383828304C09093D2056D
:1057E0008093D105FE01329644C0FE01E20FF31F03
:1057F0008193919322503109398328833AC02091B3
:10580000CF053091D005232B41F420911302309124
:1058100014023093D0052093CF05209111023091CE
:1058200012022115310541F42DB73EB74091150202
:1058300050911602241B350BE091CF05F091D00555
:10584000E217F307A0F42E1B3F0B2817390778F057
:10585000AC014E5F5F4F2417350748F04E0F5F1FB6
:105860005093D0054093CF058193919302C0E0E01F
:10587000F0E0CF01DF91CF911F910F910895CF9369
:10588000DF93009709F481C0FC01329713821282E2
:10589000A091D105B091D205109781F4208131817A
:1058A000820F931F2091CF053091D005281739071B
:1058B00051F5F093D005E093CF0567C0ED0120E0EE
:1058C00030E0CE17DF0740F44A815B819E0141152D
:1058D0005105F1F0EA01F5CFD383C28340815181B4
:1058E000840F951FC817D90759F488819981840FAF
:1058F000951F0296918380838A819B819383828303
:105900002115310529F4F093D205E093D1053DC06E
:10591000E901FB83EA8349915991C40FD51FEC1724
:10592000FD0761F480819181840F951F0296E90142
:1059300099838883828193819B838A83E0E0F0E06E
:1059400012968D919C911397009719F0FD01DC013F
:10595000F7CF8D919C9111979D012E5F3F4F820F44
:10596000931F2091CF053091D0052817390769F48E
:10597000309729F41092D2051092D10502C01382FB
:105980001282B093D005A093CF05DF91CF910895F7
:1059900081E090E0F8940C94D62CFB01DC018D9111
:1059A000019080190110D9F3990B089511E0C2EC10
:1059B000D1E000E006C0802FFE010E94802A2196DF
:1059C000011DC33CD10780E00807A9F7F894FFCF79
:1059D0002C142C142C142C142C142C142C142C14C7
:1059E000FF0000D30520000D0310031B032B033819
:1059F000034103300031003200330000000000009A
:105A0000DD08B00858148408A80894088508000028
:105A10000000C4142D145B1411158C146A147E1428
:105A200074696D6500706F7456657800656E6356B5
:105A3000657800676F616C006D6561737572656D87
:105A4000656E747300766F6C746167650063757260
:105A500072656E740070756C736550574D0070758B
:105A60006C736554696D6500696E50756C73650083
:105A7000616363656C5800616363656C59006163C1
:105A800063656C5A006779726F58006779726F5955
:105A9000006779726F5A006973476F616C006163C8
:105AA0007475616C54696D65000D0A006E616E005D
:105AB000696E66006F76660070756C73650073655D
:105AC00074476F616C00646573657269616C697AB3
:105AD000652829206661696C65643A20004F6B0077
