:100000000C94C3010C9483110C9458110C942D1171
:100010000C9402110C94D7100C94AC100C94811019
:100020000C9456100C94F4010C94F4010C94F4010B
:100030000C94F4010C94AE110C94F4010C94F401A2
:100040000C94F4010C9411140C94F4010C94F4012C
:100050000C94F4010C94F4010C94F4010C94CF0E64
:100060000C94F4010C9475120C944B120C94F40142
:100070000C94F4010C94F4010C94F4010C94F4012C
:100080000C94F4010C94F4010C94F4010C94F4011C
:100090000C94F4010C94F4010C94F4010C94B90A3E
:1000A0000C94F4010C94F4010C94F4010C94F401FC
:1000B0000C94F4010C94F4010C94F4010C94F401EC
:1000C0000C94F4010C94F4010C94F4010C94F401DC
:1000D0000C94F4010C94F4010C94F4010C94F401CC
:1000E0000C94F4011C0E1F0E0E0E120E180E560E5E
:1000F000230E270E2D0E310E350E3B0E3F0E430EF6
:10010000560E490E4D0E510E58135D1362136C13AB
:100110007613EF138013881390139A13A413AE135E
:10012000BD13C713EF13D113DB13E5130C94450F65
:100130000C9482080C94120E0C94510E0C94EF1334
:100140000C94FC250C94430E0C94BD130C94E513F5
:100150000C94190F0C941F0E0C94AD080C94570FAF
:100160000C9491080C94DB130C94D1130C94F62589
:100170000C946C130C9481080C946B0F0C947613F4
:100180000C94FE010C94180E0C94560E0C941C0E3C
:100190000C9412020C949A130C94FE0F0C945D13A1
:1001A0000C94480F0C943B0E0C9458080C94270E9A
:1001B0000C94F6010C942D0E0C94350E0C945813DF
:1001C0000C94B10F0C94A5080C94AE130C94790FF9
:1001D0000C940E0E0C9457080C94551B0C94A413FD
:1001E0000C9490130C9488130C94571B0C944D0E84
:1001F0000C94490E0C941A0F0C94230E0C943F0E81
:100200000C94C7130C9462130C94DA080C948013AA
:100210000C94561B0C94310E000020002300260085
:1002200029002C002F00320000010000030106010C
:10023000090100002200250028002B002E003100BB
:10024000340002010000050108010B010505050548
:10025000070508080808020202020A0A080804043E
:10026000040401010101010101010303030303036C
:100270000303040707070C0C0C0C0C0C0C0C0202FB
:10028000020206060606060606060B0B0B0B0B0BF8
:100290000B0B010210202008081020401020408085
:1002A000020102010804020101020408102040803A
:1002B00080402010080402018004020180402010C8
:1002C0000804020108040201010204081020408011
:1002D000010204081020408000000A0B02090C0DE6
:1002E0000E080703040100000000000000000000E9
:1002F00000000000000000000000000000000000FE
:1003000000000000121110000000000000000000BA
:1003100000000000000000000000000000000000DD
:100320002100240027002A002D00300033000101A5
:100330000000040107010A0102CDCCCC3D0AD723FD
:100340003C17B7D13877CC2B329595E6241FB14FA7
:100350000A0000803FCDCCCC3D6F12833A95BFD6CA
:10036000337D1D9026B3CE010C000020410000C853
:100370004200401C4620BCBE4CCA1B0E5AAEC59D56
:100380007400FC25F62511241FBECFEFD1E2DEBF9D
:10039000CDBF00E00CBF13E0A0E0B2E0E6E8F6E578
:1003A00000E00BBF02C007900D92AE35B107D9F740
:1003B00025E0AEE5B3E001C01D92A33CB207E1F732
:1003C00011E0C2ECD1E000E006C021970109802FC6
:1003D000FE010E94E028C13CD10780E00807A9F790
:1003E0000E9410210C94312B0C94000081E080932A
:1003F000D703089581E08093D803089540E050E04A
:10040000BA018AEA95E00E94F71240E050E060E00D
:1004100070E88CEA95E00E94F7121092290510927C
:10042000CF030895CF93DF932091CA0330E0F90101
:10043000E852FD4F8491F901EE56FD4FD491F90138
:10044000E45BFD4FC491CC23D1F081110E94010ED9
:10045000EC2FF0E0EE0FFF1FE85EFD4FA591B49189
:10046000EC91ED2361F08091CB039091CC03A091AE
:10047000CD03B091CE030196A11DB11D0BC080919B
:10048000CB039091CC03A091CD03B091CE03019703
:10049000A109B1098093CB039093CC03A093CD0322
:1004A000B093CE03DF91CF910895FC012281338177
:1004B00021153105C1F084819581468157818417CA
:1004C000950740F0138212820190F081E02D81E0C7
:1004D00080870895AC014F5F5F4F55834483F901D6
:1004E000E80FF91F60830895CF92DF92EF92FF9299
:1004F0000F931F93CF93DF93FC01E480F580C080BE
:10050000D180F60102811381C081D181C017D1074A
:1005100088F40115110541F0209731F0BE01C801A2
:100520000E94282B892B49F0FE01219680818111A0
:10053000FBCFECCF80E090E001C0CE01009731F41A
:10054000E00EF11EF601F382E282C801DF91CF9145
:100550001F910F91FF90EF90DF90CF9008954F92F1
:100560005F926F927F929F92AF92BF92CF92DF92F3
:10057000EF92FF920F931F93CF93DF93EC018B01C8
:1005800088818B3231F08D3229F42196AA24A394EC
:1005900002C02196A12C888190ED980F9A3018F016
:1005A0008E3209F03DC1C12CD12C7601FE01819122
:1005B000A0EDBA2EB80E29E02B1528F18AE9C8164D
:1005C00089E9D806E80689E1F806F8F4AAE0B0E07F
:1005D000A70196010E9490286B017C018B2D90E071
:1005E000A0E0B0E0AC01BD014095509560957095DC
:1005F0004C155D056E057F0540F0C80ED91EEA1E3C
:10060000FB1EEF01D3CF882339F0B12CEAE04E2E48
:10061000512C612C712C22C0AA20A9F091E0C9169E
:10062000D104E10490E8F90680F76AE0C801049675
:100630000E94FF15F094E094D094C094C11CD11C8A
:10064000E11CF11C05C068E0C80104960E94FF157A
:10065000F801C082D182E282F382E0C0C114D104E9
:10066000F0E8EF06F10450F0C701B601A3019201D2
:100670000E949B2869017A01B394F0CFFE01899111
:1006800090ED980F9A3010F4B394F8CF8E3201F5B4
:10069000EF012196FE012196808170ED972E980E34
:1006A00029E02915A8F08CECC816D8068CE0E806DD
:1006B000F10480F7AAE0B0E0A70196010E9490281B
:1006C0006B017C01C90CD11CE11CF11CBA94E2CF76
:1006D00080818F7D853409F052C081818D3219F47B
:1006E000329651E006C08B3211F0319601C032963D
:1006F00050E0DF01C0E0D0E06AE08B2D0B2C000C55
:10070000990BFD014D9120ED240F2A3090F56C9F3F
:1007100090016D9F300D1124C42F440FDD0BE09725
:10072000C20FD31F9C012C0F3D1F273231054CF304
:10073000C8010496552361F0AA2031F0C12CD12CB8
:10074000E12C60E8F62E13C0C12CD12C76010FC02D
:10075000A11007C0C12CD12C50E8E52E5FE7F52E83
:1007600006C0C12CD12C40E8E42EFF24FA946CE0A2
:100770004EC0552331F0D195C195D10902C0C0E0DA
:10078000D0E0808181114CC0CB0DD11DB7FCDA9532
:10079000C701B6010E9471271C161D06ACF4F12C8E
:1007A000C0FF0CC024E0F29EF0011124E759FC4F79
:1007B00025913591459154910E94D227D595C795A1
:1007C000F394209769F718C0D195C195D109F12C00
:1007D000209791F0C0FF0CC024E0F29EF00111249C
:1007E000E75CFC4F25913591459154910E94D227A9
:1007F000D595C795F394ECCF6B017C01AA2021F02D
:10080000F7FAF094F7F8F0946CE0C80104960E94AF
:10081000FF15F801C082D182E282F38281E001C03B
:1008200080E0DF91CF911F910F91FF90EF90DF90CB
:10083000CF90BF90AF909F907F906F905F904F90C0
:100840000895CF93DF93DC01EB01EC81FD818A8178
:100850009B810896E817F90718F481E0888722C081
:100860003897FD83EC833097E9F01296CD91DC91B7
:100870001397209751F0CF018C1B9D0B23E095958A
:1008800087952A95E1F78D8303C01196FC93EE932B
:100890001396FC93EE931297158214821782168298
:1008A000CF0102C080E090E0DF91CF9108950097E2
:1008B00039F0FC0194819F7781E019F080E0089580
:1008C00081E00895DC0114962C91149726FF13C043
:1008D000ED91FC91309779F0CB01009751F0258193
:1008E0000197222341F0B8E02B02E00DF11D112405
:1008F000F4CFCF01089580E090E00895FC012581B8
:10090000222331F0F8E02F02800D911D112408956B
:1009100080E090E008958F929F92AF92BF92CF9225
:10092000DF92EF92FF920F931F93CF93DF93CDB798
:10093000DEB7CA52D2400FB6F894DEBF0FBECDBFAD
:10094000CE0101960E94EA1C0E94C30E6B017C013D
:10095000AE014F5F5F4F60E572E0CE010A960E94E4
:100960008C208C01009749F068E004960E94FF15E6
:10097000F801C082D182E282F38280917B00877F7E
:1009800080937B0085E480937C0080917A00806472
:1009900080937A0080917A0086FDFCCF8091780068
:1009A0002091790090E08C01122BAE014F5F5F4FD8
:1009B00065E572E0CE010A960E948C207C010097CA
:1009C00069F06AE004960E94FF15C801110FAA0B96
:1009D000BB0BF70180839183A283B383C090CB03C9
:1009E000D090CC03E090CD03F090CE03AE014F5FEA
:1009F0005F4F6CE572E0CE010A960E948C208C015C
:100A0000009749F06AE004960E94FF15F801C08241
:100A1000D182E282F382C0905705D0905805E090D1
:100A20005905F0905A05AE014F5F5F4F63E672E0E3
:100A3000CE010A960E948C20AC01C701B6010E942B
:100A40000516AE014F5F5F4F68E672E0CE010A9671
:100A50000E948C20AC0160E070E0CB010E94051682
:100A600080919A0590919B05CE5EDD4F1882198288
:100A70001A821B82C251D240CD5FDD4F9983888399
:100A8000C350D240CB5FDD4F19821882C550D2408F
:100A900011E0C45FDD4F1883CC50D24082E090E07B
:100AA000C75FDD4F99838883C950D240C35FDD4F54
:100AB0001883CD50D24002E0C55FDD4F0883CB5094
:100AC000D240BE016A5E7D4FCE018D5F9D4F0E9478
:100AD000FA0C80939C05CA5EDD4F68817981C6510E
:100AE000D24083E0769567958A95E1F77B01EE0C1D
:100AF000FF1CEE0CFF1C80919A0590919B05CE5E29
:100B0000DD4F188219821A821B82C251D240CD5FFA
:100B1000DD4F99838883C350D240CB5FDD4F19826C
:100B20001882C550D240C45FDD4F1883CC50D240EC
:100B300081E090E0C75FDD4F99838883C950D24040
:100B4000C35FDD4F1883CD50D240C55FDD4F0883B2
:100B5000CB50D240BE016A5E7D4FCE018D5F9D4F6E
:100B60000E94FA0C80939C05CA5EDD4F68817981F2
:100B7000C651D240072E000C880B990B0E94732798
:100B80002AE037ED43E25CE30E94D22720E030E028
:100B90004AE754E40E9455294B015C01B701FF0C60
:100BA000880B990B0E9473272FE632E143E85AE342
:100BB0000E94D2279B01AC01C501B4010E94E92823
:100BC0006B017C01AE014F5F5F4F65E772E0CE01C4
:100BD0000A960E948C20AC01C701B6010E9405163E
:100BE00080919A0590919B05CB5DDD4F188219820B
:100BF0001A821B82C552D240CA5EDD4F9983888318
:100C0000C651D240C85EDD4F19821882C851D24009
:100C1000C15EDD4F1883CF51D24085E090E0C45EC5
:100C2000DD4F99838883CC51D240C05EDD4F18835D
:100C3000C052D240C25EDD4F0883CE51D2404091B7
:100C40009E0550919F056091A0057091A105CE0170
:100C50008A5E9D4F0E94F31F80919A0590919B059B
:100C6000CE5EDD4F188219821A821B82C251D24099
:100C7000CD5FDD4F99838883C350D240CB5FDD4F7A
:100C800019821882C550D240C45FDD4F1883CC5002
:100C9000D24084E090E0C75FDD4F99838883C950DC
:100CA000D240C35FDD4F1883CD50D240C55FDD4FCA
:100CB0000883CB50D240BE01675D7D4FCE018D5F72
:100CC0009D4F0E94FA0C80939C05C75DDD4F6881A3
:100CD0007981C952D240072E000C880B990B0E94D3
:100CE00073276B017C016091A2057091A30580912F
:100CF000A4059091A5050E9471279B01AC01C70135
:100D0000B6010E94552920E030E04AE754E40E94F1
:100D100055296B017C01AE014F5F5F4F6DE772E0BB
:100D2000CE010A960E948C20AC01C701B6010E9438
:100D30000516AE014F5F5F4F65E872E0CE010A967F
:100D40000E948C20AC016091D0037091D1038091FE
:100D5000D2039091D3030E940516AE014F5F5F4FFF
:100D60006EE872E0CE010A960E948C208C010097FA
:100D700081F0E090D403F090D50368E004960E94DF
:100D8000FF15C701A0E0B0E0F80180839183A28342
:100D9000B383AE014F5F5F4F68E972E0CE010A9600
:100DA0000E948C208C01F090CF03009769F068E0DE
:100DB00004960E94FF158F2D90E0A0E0B0E0F801AE
:100DC00080839183A283B38308EE13E022E835E0A9
:100DD00042E06BE3809181050E94C014609182051E
:100DE00070918305762767277627072E000C880BDE
:100DF000990B0E94732720E030E040E858E30E94FE
:100E0000D2276B017C01AE014F5F5F4F60EA72E059
:100E1000CE010A960E948C20AC01C701B6010E9447
:100E2000051622E835E042E06DE3809181050E94DD
:100E3000C014609182057091830576276727762715
:100E4000072E000C880B990B0E94732720E030E0DE
:100E500040E858E30E94D2276B017C01AE014F5F4E
:100E60005F4F67EA72E0CE010A960E948C20AC01C7
:100E7000C701B6010E94051622E835E042E06FE3A3
:100E8000809181050E94C014609182057091830554
:100E9000762767277627072E000C880B990B0E9470
:100EA000732720E030E040E858E30E94D2276B012E
:100EB0007C01AE014F5F5F4F6EEA72E0CE010A9691
:100EC0000E948C20AC01C701B6010E94051622E8E1
:100ED00035E042E063E4809181050E94C014609196
:100EE000820570918305762767277627072E000CE9
:100EF000880B990B0E94732720E030E04AE753E407
:100F00000E94D22720E030E040E058E30E94D22740
:100F10006B017C01AE014F5F5F4F65EB72E0CE016C
:100F20000A960E948C20AC01C701B6010E940516EA
:100F300022E835E042E065E4809181050E94C0141A
:100F40006091820570918305762767277627072EA3
:100F5000000C880B990B0E94732720E030E04AE7D1
:100F600053E40E94D22720E030E040E058E30E94A2
:100F7000D2276B017C01AE014F5F5F4F6BEB72E0DC
:100F8000CE010A960E948C20AC01C701B6010E94D6
:100F9000051622E835E042E067E4809181050E9471
:100FA000C0146091820570918305762767277627A4
:100FB000072E000C880B990B0E94732720E030E06D
:100FC0004AE753E40E94D22720E030E040E058E3B3
:100FD0000E94D2276B017C01AE014F5F5F4F61EC35
:100FE00072E0CE010A960E948C20AC01C701B601C6
:100FF0000E940516F0905C05AE014F5F5F4F67ECF5
:1010000072E0CE010A960E948C208C01009731F08C
:1010100066E004960E94FF15F801F0826091650574
:101020007091660580916705909168050E9471270F
:101030006B017C01AE014F5F5F4F6EEC72E0CE0141
:101040000A960E948C20AC01C701B6010E940516C9
:1010500085E494E0CD5FDD4F99838883C350D2400F
:10106000CB5FDD4F19821882C550D240BE016D5F43
:101070007D4FCE010A960E94D21689ED92E00E9421
:10108000E41E1092D703C65DDD4F0FB6F894DEBFA5
:101090000FBECDBFDF91CF911F910F91FF90EF90C9
:1010A000DF90CF90BF90AF909F908F90089508955C
:1010B00008954091A503262F30E0240F311D2132E1
:1010C0003105DCF420912F042430C9F4FC0180E0C8
:1010D00090E0861758F43091A5032191DC01AB57BD
:1010E000BC4FA30FB11D2C930196F3CF8091A503A4
:1010F000680F6093A50380E0089581E0089582E081
:1011000008950895E091630380916203E81730F435
:10111000F0E0E15FFB4F808190E008958FEF9FEF5B
:1011200008959091630380916203981750F4E92F1A
:10113000F0E0E15FFB4F208130E09F5F909363031D
:1011400002C02FEF3FEFC90108958091620390E044
:1011500020916303821B91090895CF92DF92EF9251
:10116000FF920F931F93CF93DF937C01CB018A01F2
:1011700020913804222389F0EB016B01C40ED51EA7
:10118000CC15DD0569F06991D701ED91FC910190D5
:10119000F081E02DC7011995F3CF642F0E94590803
:1011A000C801DF91CF911F910F91FF90EF90DF90D9
:1011B000CF900895CF93DF931F92CDB7DEB76983A9
:1011C000209138042223D1F020913504203240F0C0
:1011D00021E030E0FC013383228380E090E015C001
:1011E00080913604E82FF0E0EC59FC4F9981908310
:1011F0008F5F809336048093350405C061E0CE0193
:1012000001960E94590881E090E00F90DF91CF9104
:1012100008958FB7F8948091C8038FBF0895AF9257
:10122000BF92CF92DF92EF92FF920F931F93CF93D3
:10123000DF93EC0188819981892B31F06EBD0DB46B
:1012400007FEFDCFAEB496C088859985892B11F035
:1012500010E801C011E0BB24B394862F812309F06C
:10126000B12C062F2C813D814E815F8160E271EAB5
:1012700087E090E00E949B28F22EA02EE12CC22E47
:10128000D12CFF2019F0C6010E94930E8A85877F1A
:10129000B9F58D858F3FB9F0902F912381E009F446
:1012A00080E0B81681F0EF85F8898F89992331F0B5
:1012B0009081892B8083BB24B39405C09081809555
:1012C00089238083B12CE989FA899081898D892BC2
:1012D0008083FF2019F0C6010E94930E8E858F3FF8
:1012E00039F0EB89FC899081888D892309F0E12A06
:1012F000E989FA899081898D8095892380832CC022
:10130000E989FA899081898D892B8083FF2019F0E2
:10131000C6010E94930E8D858F3F69F0EF85F88995
:101320008F89902F912319F09081892B03C0908190
:10133000809589238083E989FA899081898D8095B8
:10134000892380838E858F3F39F0EB89FC899081DA
:10135000888D892309F0E12A8E858F3F09F0AE2C14
:1013600088859985892B21F4110F11118ACF02C02C
:101370001695FBCF8A2DDF91CF911F910F91FF9092
:10138000EF90DF90CF90BF90AF9008958CBD9DBD42
:1013900008951F93CF93DF93282F30E0F901E8528F
:1013A000FD4F8491F901EE56FD4FD491F901E45BB4
:1013B000FD4FC491CC23C1F0162F81110E94010E64
:1013C000EC2FF0E0EE0FFF1FEE5CFD4FA591B49106
:1013D0009FB7F894111104C08C91D095D82302C006
:1013E000EC91DE2BDC939FBFDF91CF911F9108958D
:1013F0008F929F92AF92BF92CF92DF92EF92FF9225
:101400000F931F93CF93DF93EC015B016A014901B6
:1014100088819981892B31F0EA81FB8180819181DA
:101420000E94C60960E08B850E94C9097401080DFD
:10143000191DE016F10639F0F70161917F01CE0127
:101440000E940F09F6CF8501CA0CDB1CC016D1061D
:1014500039F0F80161918F01CE010E940F09F6CF9A
:1014600061E08B850E94C90981E0DF91CF911F91D6
:101470000F91FF90EF90DF90CF90BF90AF909F9033
:101480008F90089510922F0481E080930E041092A3
:10149000090461E084E10E94C90961E085E10E94DC
:1014A000C909E9EBF0E080818E7F808380818D7FA8
:1014B000808388E48093B80085E48093BC0008951D
:1014C000CF93DF9391E0909384038823B9F0C09188
:1014D000B800D091BA008091BC008A7B8093BC0098
:1014E00060E084E10E94C90960E085E10E94C909C9
:1014F0000E94420AD093BA00C093B800DF91CF9106
:10150000089585ED8093BC00809131049091320460
:10151000A0913304B09134040796A11DB11D23E0BE
:10152000B695A795979587952A95D1F72091BC00F8
:1015300024FF1CC040913104509132046091330467
:1015400070913404452B462B472B81F30097A1055E
:10155000B10541F025E32A95F1F700000197A109B3
:10156000B109E4CF809130040C94600A10922F04EA
:1015700008951F920F920FB60F9211240BB60F927F
:101580002F933F934F935F936F937F938F939F938B
:10159000AF93BF93EF93FF938091B900887F80361C
:1015A00009F49CC068F5883209F45BC090F480317E
:1015B00009F454C038F4882309F4F6C0883009F4DB
:1015C0004DC0F6C0883109F44CC0803209F45DC0CA
:1015D000EFC0803409F468C048F4803309F455C082
:1015E000883309F0E5C080930D04D8C0803509F434
:1015F0004FC0883509F45DC0883409F0D9C0D6C021
:10160000883909F4C7C0A8F4883709F467C038F4EA
:10161000883609F463C0803709F460C0C9C08838CF
:1016200009F4B8C0803909F45FC0803809F0C0C03F
:101630005BC0803B09F486C038F4803A09F466C088
:10164000883A09F47FC0B4C0803C09F4A7C0883C44
:1016500009F4A4C0883B09F48AC0AAC080910A0496
:1016600010C090910C0480910B04981770F5E091D4
:101670000C0481E08E0F80930C04F0E0E751FC4FE6
:1016800080818093BB0085EC86C080930D048EC062
:10169000E0910C0481E08E0F80930C048091BB00DC
:1016A000F0E0E751FC4F808390910C0480910B0493
:1016B0006EC0E0910C0481E08E0F80930C04809149
:1016C000BB00F0E0E751FC4F808380910E04811154
:1016D0006DC081E08093090484EA61C083E0809357
:1016E0002F041092C703CFCF8091C703803208F038
:1016F00051C0E091C70381E08E0F8093C7038091B2
:10170000BB00F0E0E955FC4F8083BDCF85EC8093B2
:10171000BC0010922F048091C703803230F4E09116
:10172000C703F0E0E955FC4F10826091C70370E0F9
:10173000E0916003F091610387EA93E019951092BC
:10174000C70336C084E080932F041092A603109242
:10175000A503E0915E03F0915F0319958091A503C5
:10176000811105C081E08093A50310928503E0916B
:10177000A60381E08E0F8093A603F0E0EB57FC4FA9
:1017800080818093BB009091A6038091A503981758
:1017900008F479CF85E88093BC000AC085EC80937B
:1017A000BC0010922F0404C010920D040E94810A04
:1017B000FF91EF91BF91AF919F918F917F916F9129
:1017C0005F914F913F912F910F900BBE0F900FBEE5
:1017D0000F901F9018958F929F92AF92BF92CF92C9
:1017E000DF92EF92FF920F931F93CF93DF931091AD
:1017F0003504113208F0C2C0062FD09137040E9480
:101800009E0E6B017C01C0912F04CC2311F18091BD
:10181000310490913204A0913304B0913404892BA7
:101820008A2B8B2B81F30E949E0E80903104909026
:101830003204A0903304B0903404DC01CB018C1945
:101840009D09AE09BF0988169906AA06BB06D8F6F7
:1018500081C082E080932F0400930E048FEF809369
:101860000D0410920C0410930B04A4E6B3E0E9EE0F
:10187000F3E080E0181721F09D9191938F5FFACFEC
:1018800010920A0490910A048D2F880F892B80935F
:101890000A0480910904813089F5109209040E949C
:1018A0009E0E6B017C0180910A048093BB008091A5
:1018B000310490913204A0913304B0913404892B07
:1018C0008A2B8B2BA9F00E949E0E0091310410915F
:1018D00032042091330430913404DC01CB018C19A3
:1018E0009D09AE09BF09081719072A073B0790F1A0
:1018F0008091BC0083FDD7CF85EC01C085EE80933D
:10190000BC000E949E0E6B017C0180912F048230EE
:1019100039F58091310490913204A0913304B09153
:101920003404892B8A2B8B2B81F30E949E0E00910D
:101930003104109132042091330430913404DC01DD
:10194000CB018C199D09AE09BF09081719072A0791
:101950003B07D8F6809130040E94600AC5E013C0AE
:1019600080910D048F3F79F080910D04803241F019
:1019700080910D04803331F0C4E005C0C1E003C0A4
:10198000C2E001C0C3E010923604109235041092F8
:1019900038048C2FDF91CF911F910F91FF90EF9022
:1019A000DF90CF90BF90AF909F908F900895FF925F
:1019B0000F931F93CF93DF93EC018A01F22E89815D
:1019C0009A81DC01ED91FC910280F381E02D199563
:1019D0000817190739F46F2D89819A810E94EB0B42
:1019E00091E0811190E0892FDF91CF911F910F91AC
:1019F000FF900895AF92BF92CF92DF92EF92FF9245
:101A00000F931F93CF93DF931F921F92CDB7DEB733
:101A10007C016B019C01255F3F4FDC0116969C9178
:101A2000169717968C91179799838A83AD90BC90DF
:101A30001197A114B10409F44CC019964C9150E0CF
:101A4000F501848195818417950710F410E08FC00B
:101A5000808191E09093380480933704109236048B
:101A60001092350420E0BE016F5F7F4FC5010E94D8
:101A7000D70C182F882351F3F501848195810297A3
:101A800028F341E062E080810E94171F10926303F7
:101A9000809362038230D1F6D50111968D919C918D
:101AA0001297DC01ED91FC910284F385E02D1995EC
:101AB000F7018387D50111968D919C911297DC01D6
:101AC000ED91FC910284F385E02D1995F70184874F
:101AD00031C0D7011296ED91FC911397309709F41C
:101AE000B5CF14966D917C91159719964C916330F2
:101AF000710539F4816089839A8350E04F5F5F4FAD
:101B000010C06115710511F4906809C0623071054B
:101B100011F49F7704C06130710511F4906C9983C2
:101B200050E002E010E0BE016F5F7F4FCF010E94E6
:101B3000C520182F1123D9F0F701828581110AC021
:101B4000848590E0982F8827D60111969C938E93D8
:101B500023850AC0F701838590E0982F8827D60156
:101B600011969C938E932485822B8D939C93812F29
:101B70000F900F90DF91CF911F910F91FF90EF90F9
:101B8000DF90CF90BF90AF900895CF93DF93EC019B
:101B90008B8181111EC01092630310926203109218
:101BA0003604109235040E94420A87E598E090932B
:101BB0005F0380935E0388E598E0909361038093D0
:101BC000600381E08B83CE010E94C50D982F88238E
:101BD00091F0888191E090933804809337041092BB
:101BE00036041092350461E089819A810E94EB0BE2
:101BF00091E0811190E0892FDF91CF9108950E94AB
:101C0000232B90E0FC013197E231F10508F04EC042
:101C10008827EE58FF4F8F4F0C94E028809180006A
:101C20008F7703C0809180008F7D8093800008951E
:101C300080918000877FF9CF84B58F7702C084B50B
:101C40008F7D84BD08958091B0008F7703C080910F
:101C5000B0008F7D8093B0000895809190008F77C1
:101C600007C0809190008F7D03C080919000877F96
:101C70008093900008958091A0008F7707C0809195
:101C8000A0008F7D03C08091A000877F8093A0007B
:101C90000895809120018F7707C0809120018F7D6A
:101CA00003C080912001877F809320010895CF9306
:101CB000DF9390E0FC01EE56FD4F2491FC01E45BC4
:101CC000FD4F8491882361F190E0880F991FFC01FA
:101CD000E25EFC4FC591D491FC01EE5CFD4FA591F5
:101CE000B491611109C09FB7F8948881209582232F
:101CF0008883EC912E230BC0623061F49FB7F89477
:101D00008881322F309583238883EC912E2B2C935E
:101D10009FBF06C08FB7F894E8812E2B28838FBF12
:101D2000DF91CF9108958230910538F0880F991F87
:101D3000880F991F05970197F1F708953FB7F89419
:101D40008091DF039091E003A091E103B091E20361
:101D500026B5A89B05C02F3F19F00196A11DB11D06
:101D60003FBFBA2FA92F982F8827820F911DA11D41
:101D7000B11DBC01CD0142E0660F771F881F991F7E
:101D80004A95D1F708952FB7F8946091DB037091CD
:101D9000DC038091DD039091DE032FBF08951F9235
:101DA0000F920FB60F9211242F933F938F939F930F
:101DB000AF93BF938091DB039091DC03A091DD038F
:101DC000B091DE033091DA0323E0230F2D3720F4A6
:101DD0000196A11DB11D05C026E8230F0296A11D85
:101DE000B11D2093DA038093DB039093DC03A0936F
:101DF000DD03B093DE038091DF039091E003A091B7
:101E0000E103B091E2030196A11DB11D8093DF03B0
:101E10009093E003A093E103B093E203BF91AF91ED
:101E20009F918F913F912F910F900FBE0F901F9018
:101E300018950895CF92DF92EF92FF920F931F9320
:101E4000CF93DF936C017A018B01C0E0D0E0CE1517
:101E5000DF0581F0D8016D918D01D601ED91FC91E6
:101E60000190F081E02DC6011995892B11F0219682
:101E7000EECF7E01C701DF91CF911F910F91FF90AF
:101E8000EF90DF90CF900895089580E090E008955E
:101E9000FC01538D448D252F30E0842F90E0821B70
:101EA000930B541710F0CF96089501970895FC01F5
:101EB000918D828D981761F0828DDF01A80FB11D81
:101EC0005D968C91928D9F5F9F73928F90E00895A5
:101ED0008FEF9FEF0895FC01918D828D981731F05F
:101EE000828DE80FF11D858D90E008958FEF9FEFB3
:101EF0000895FC01918D228D892F90E0805C9F4F89
:101F0000821B91098F739927089585E494E00E94BC
:101F1000790F21E0892B09F420E0822F0895FC013C
:101F2000848DDF01A80FB11DA35ABF4F2C91848D62
:101F300090E001968F739927848FA689B7892C9397
:101F4000A089B1898C91837080648C93938D848DEA
:101F5000981306C00288F389E02D80818F7D8083ED
:101F60000895EF92FF920F931F93CF93DF93EC01AD
:101F700081E0888F9B8D8C8D981305C0E889F98945
:101F8000808185FD26C0F62E0B8D10E00F5F1F4F60
:101F90000F731127E02E8C8DE8120CC00FB607FCD2
:101FA000FACFE889F989808185FFF5CFCE010E94BB
:101FB0008F0FF1CF8B8DFE01E80FF11DE35AFF4F1C
:101FC000F0829FB7F8940B8FEA89FB898081806249
:101FD0000AC09FB7F894EE89FF896083E889F98980
:101FE00080818370806480839FBF81E090E0DF9177
:101FF000CF911F910F91FF90EF900895CF93DF93B2
:10200000EC01888D8823C9F0EA89FB89808185FDF0
:1020100005C0A889B9898C9186FD0FC00FB607FC51
:10202000F5CF808185FFF2CFA889B9898C9185FF92
:10203000EDCFCE010E948F0FE7CFDF91CF910895B2
:102040000E94850F811125C080E090E0892B41F02E
:1020500080E090E0892B21F00E94000081111DC0DA
:1020600080E090E0892B41F080E090E0892B21F026
:102070000E940000811114C080E090E0892BA9F03B
:1020800080E090E0892B89F00E94000081110BC054
:10209000089581E08093D803D7CF0E940000E0CF5D
:1020A0000E940000E9CF0C94000008951F920F9247
:1020B0000FB60F9211240BB60F922F933F934F93AD
:1020C0005F936F937F938F939F93AF93BF93EF93A0
:1020D000FF93E0910E02F0910F021995FF91EF919D
:1020E000BF91AF919F918F917F916F915F914F9130
:1020F0003F912F910F900BBE0F900FBE0F901F902E
:1021000018951F920F920FB60F9211240BB60F92D3
:102110002F933F934F935F936F937F938F939F93EF
:10212000AF93BF93EF93FF93E0910C02F0910D02F8
:102130001995FF91EF91BF91AF919F918F917F91F1
:102140006F915F914F913F912F910F900BBE0F9028
:102150000FBE0F901F9018951F920F920FB60F92FF
:1021600011240BB60F922F933F934F935F936F936E
:102170007F938F939F93AF93BF93EF93FF93E091E0
:102180000202F09103021995FF91EF91BF91AF9177
:102190009F918F917F916F915F914F913F912F917F
:1021A0000F900BBE0F900FBE0F901F9018951F92AF
:1021B0000F920FB60F9211240BB60F922F933F93ED
:1021C0004F935F936F937F938F939F93AF93BF933F
:1021D000EF93FF93E0910002F09101021995FF91B6
:1021E000EF91BF91AF919F918F917F916F915F918F
:1021F0004F913F912F910F900BBE0F900FBE0F90FC
:102200001F9018951F920F920FB60F9211240BB6C4
:102210000F922F933F934F935F936F937F938F937F
:102220009F93AF93BF93EF93FF93E0910A02F091D6
:102230000B021995FF91EF91BF91AF919F918F91F3
:102240007F916F915F914F913F912F910F900BBEB6
:102250000F900FBE0F901F9018951F920F920FB600
:102260000F9211240BB60F922F933F934F935F93CE
:102270006F937F938F939F93AF93BF93EF93FF934E
:10228000E0910802F09109021995FF91EF91BF9139
:10229000AF919F918F917F916F915F914F913F91FE
:1022A0002F910F900BBE0F900FBE0F901F9018959F
:1022B0001F920F920FB60F9211240BB60F922F930D
:1022C0003F934F935F936F937F938F939F93AF93BE
:1022D000BF93EF93FF93E0910602F09107021995E7
:1022E000FF91EF91BF91AF919F918F917F916F91EE
:1022F0005F914F913F912F910F900BBE0F900FBEAA
:102300000F901F9018951F920F920FB60F921124E5
:102310000BB60F922F933F934F935F936F937F93DF
:102320008F939F93AF93BF93EF93FF93E09104023A
:10233000F09105021995FF91EF91BF91AF919F9197
:102340008F917F916F915F914F913F912F910F905E
:102350000BBE0F900FBE0F901F9018951F920F92FB
:102360000FB60F9211240BB60F922F933F934F93FA
:102370005F936F937F938F939F93AF93BF93EF93ED
:10238000FF938091E5039091E603A091E703B0915C
:10239000E803892B8A2B8B2B49F19091E4038091E0
:1023A00000008927809300008091E5039091E60367
:1023B000A091E703B091E803181619061A061B0648
:1023C0000CF056C08091E5039091E603A091E703DD
:1023D000B091E8030197A109B1098093E5039093B7
:1023E000E603A093E703B093E80342C08091100294
:1023F000E8E3F3E0E4919FEF90931002E230C9F03C
:1024000050F4EE2399F0E13081F590916F009D7FBB
:1024100090936F002AC0E43019F1E0F0E53029F51F
:10242000909173009D7F909373001FC010926E0077
:102430001CC0909170009D7F9093700091E09093EC
:10244000B0009091B100987F94609093B100109289
:10245000B3000BC0909171009D7F9093710005C0F7
:10246000909172009D7F9093720060E00E94C90974
:10247000FF91EF91BF91AF919F918F917F916F915C
:102480005F914F913F912F910F900BBE0F900FBE18
:102490000F901F9018951F920F920FB60F92112454
:1024A0000BB60F922F933F934F935F936F937F934E
:1024B0008F939F93AF93BF93EF93FF9385E494E043
:1024C0000E948F0FFF91EF91BF91AF919F918F91DC
:1024D0007F916F915F914F913F912F910F900BBE24
:1024E0000F900FBE0F901F9018951F920F920FB66E
:1024F0000F9211240BB60F922F938F939F93EF930C
:10250000FF93E0915504F09156048081E0915B04C3
:10251000F0915C0482FD12C0908180915E048F5F17
:102520008F7320915F04821751F0E0915E04F0E018
:10253000EB5BFB4F958F80935E0401C08081FF9120
:10254000EF919F918F912F910F900BBE0F900FBE27
:102550000F901F9018950F931F93CF93DF93EC016B
:102560000E94C30E0E811F81288539850617170723
:1025700028073907B8F58A858823A1F18B859C85C2
:10258000AD85BE85892B8A2B8B2B61F1E881F98182
:1025900019958B859C85AD85BE85181619061A067A
:1025A0001B0684F48F859889A989BA890197A109A6
:1025B000B1098F87988BA98BBA8B892B8A2B8B2B90
:1025C00009F41A860E94C30E0A811B812C813D8169
:1025D000DC01CB01800F911FA21FB31F8E839F834D
:1025E000A887B987DF91CF911F910F9108958F929E
:1025F0009F92AF92BF92CF92DF92EF92FF920F9392
:102600001F93CF93DF938C016A017B0120E030E0C0
:102610004FE753E4C701B6010E94D2274B015C018A
:1026200020E030E0A9010E94FD2918161CF4C50124
:10263000B40103C0C501B40190580E94C729EB0141
:1026400020E030E0A901C701B6010E94FD2918165B
:1026500014F460E001C061E0F80181810E94C909C1
:10266000CF3FD10509F014F4DD2702C0CFEFD0E051
:10267000F801108161E0812F0E94570E209709F424
:10268000B1C0CF3FD10509F4AFC0E12FF0E0E8526F
:10269000FD4FE4918E2F90E0FC013197E231F1057E
:1026A00008F09DC08827EC57FF4F8F4F0C94E0280F
:1026B00084B5806884BDC7BDA7C084B5806284BD71
:1026C000C8BDA2C080918000806880938000D093B4
:1026D0008900C093880098C08091800080628093B8
:1026E0008000D0938B00C0938A008EC080918000C0
:1026F000886080938000D0938D00C0938C0084C04C
:102700008091B00080688093B000C093B3007CC01B
:102710008091B00080628093B000C093B40074C018
:1027200080919000806880939000D0939900C0932E
:1027300098006AC080919000806280939000D0934E
:102740009B00C0939A0060C0809190008860809345
:102750009000D0939D00C0939C0056C08091A00033
:1027600080688093A0008091A0008F7B8093A00060
:10277000D093A900C093A80047C08091A0008062B8
:102780008093A000D093AB00C093AA003DC080917D
:10279000A00088608093A000D093AD00C093AC00EF
:1027A00033C080912001806880932001D09329015B
:1027B000C093280129C0809120018062809320016C
:1027C000D0932B01C0932A011FC080912001886003
:1027D00080932001D0932D01C0932C0115C0C038E7
:1027E000D10514F460E001C061E0812FDF91CF9149
:1027F0001F910F91FF90EF90DF90CF90BF90AF901F
:102800009F908F900C94C909DF91CF911F910F91E8
:10281000FF90EF90DF90CF90BF90AF909F908F9000
:1028200008951F920F920FB60F9211240BB60F92BC
:102830002F933F934F935F936F937F938F939F93C8
:10284000AF93BF93EF93FF938091E30387FF05C09E
:10285000109285001092840016C02091E303022E8E
:10286000000C330B80911E0590E0281739075CF4AB
:102870003091E30325E03203F0011124EE51FB4FC8
:10288000808186FD15C08091E3038F5F8093E30311
:102890002091E303022E000C330B80911E0590E083
:1028A0002817390794F48091E3038C302CF10DC084
:1028B0003091E3033203F0011124EE51FB4F80818C
:1028C00060E08F730E94C909DECF809184009091EF
:1028D000850084349C4918F480E49CE905C080910B
:1028E00084009091850004969093890080938800DD
:1028F0008FEF8093E3032AC04091840050918500BC
:102900003091E30325E03203F0011124EE51FB4F37
:1029100081819281840F951F909389008093880014
:102920003091E3033203F0011124EE51FB4F80811B
:1029300086FF0CC03091E3033203F0011124EE5105
:10294000FB4F808161E08F730E94C909FF91EF9175
:10295000BF91AF919F918F917F916F915F914F91B7
:102960003F912F910F900BBE0F900FBE0F901F90B5
:1029700018958EBD00000DB407FEFDCF8EB50895ED
:102980002F923F924F925F926F927F928F929F927F
:10299000AF92BF92CF92DF92EF92FF920F931F936D
:1029A000CF93DF9300D000D0CDB7DEB7D82EC62EA0
:1029B0004D8379010E94C30E4B015C01312C1E82B4
:1029C000222423949D81892F90E09C838B8328016E
:1029D000612C712CED813E1608F046C0209238041F
:1029E000D092370410923604109235046C2D89E38E
:1029F00094E00E94DA0861E089E394E00E94EB0B26
:102A000020923804D0923704109236041092350484
:102A10006B817C81631971096132710514F060E288
:102A200070E0613208F060E241E08D2D0E94171FD6
:102A30001092630380936203909162038091630319
:102A4000981709F443C00115110569F10E94C30EDE
:102A5000DC01CB0188199909AA09BB0984159505E0
:102A6000A605B70500F132C001151105D1F10E948C
:102A7000C30EDC01CB0188199909AA09BB0920E022
:102A800030E080179107A207B30758F1FD812F2F7F
:102A900030E04E81842F440F990B821793070CF579
:102AA0008FEF8E831EC0F7012E81E20FF11D27FDEF
:102AB000FA95FA83E98389E394E00E949108E98119
:102AC000FA818083FE81FF5FFE83B6CF61E089E3F8
:102AD00094E00E94EB0B8D81813208F080E2380E89
:102AE00079CF8E8126960FB6F894DEBF0FBECDBF8C
:102AF000DF91CF911F910F91FF90EF90DF90CF90DA
:102B0000BF90AF909F908F907F906F905F904F900D
:102B10003F902F900895BF92CF92DF92EF92FF9255
:102B20000F931F93CF93DF931F921F92CDB7DEB702
:102B3000F82EE62EC42EB22ED02E08EE13E09E0103
:102B40002E5F3F4F41E00E94C014882341F14C2D7D
:102B500050E04B1951094F5F5F4F81E090E002C098
:102B6000880F991FBA94E2F70197042E01C0880FCD
:102B70000A94EAF72D2D01C0220F4A95EAF7382F63
:102B800030959A8193238223892B8A838983AE018E
:102B90004F5F5F4F6E2D8F2D0E94F61E01C080E0AB
:102BA0000F900F90DF91CF911F910F91FF90EF90B9
:102BB000DF90CF90BF9008950F931F93CF93DF9333
:102BC000EC018B012097A9F06E817F81601771075E
:102BD00081F00115110541F06115710529F0C80159
:102BE0000E94282B892B29F0CE010E947E04EC0143
:102BF000E9CFCE01DF91CF911F910F910895FC0194
:102C000090819078692B60830895CF92DF92EF9244
:102C1000FF92CF93DF934115510571F0EA016B01EB
:102C20007C016CE0CA0104960E94FF15C882D9821B
:102C3000EA82FB8281E001C080E0DF91CF91FF90CA
:102C4000EF90DF90CF900895CF93DF93EC018881D0
:102C50009981DC01ED91FC910190F081E02D1995B5
:102C60002A813B81820F931F9B838A83DF91CF91BF
:102C70000895CF93DF93EC0188819981DC01ED9178
:102C8000FC910280F381E02D19952A813B81820F0E
:102C9000931F9B838A83DF91CF9108958F929F9298
:102CA000AF92BF92CF92DF92EF92FF920F931F935A
:102CB000CF93DF93CDB7DEB766970FB6F894DEBF3C
:102CC0000FBECDBF6C018E01095E1F4F78018AE0F7
:102CD000882E912CA12CB12CCB01BA01A501940115
:102CE0000E949B28942F852F605DF80162938F01CD
:102CF000A901692F782F411551056105710561F70B
:102D0000A7014E1B5F0BBF01C6010E9439166696D4
:102D10000FB6F894DEBF0FBECDBFDF91CF911F91EC
:102D20000F91FF90EF90DF90CF90BF90AF909F906A
:102D30008F900895EF92FF920F931F93CF93DF939D
:102D4000EC017B0162E20E9424168701F801619187
:102D50008F01662379F0ECEDF2E0F280FF20A1F024
:102D6000329681816813F9CF6CE5CE010E9424165A
:102D70006F2D0AC062E2CE01DF91CF911F910F91BA
:102D8000FF90EF900C942416CE010E942416DECF03
:102D9000FB0101900020E9F73197AF01461B570B6B
:102DA0000C9439162F923F924F925F926F927F92BE
:102DB0008F929F92AF92BF92CF92DF92EF92FF924B
:102DC0000F931F93CF93DF93CDB7DEB76C970FB6FA
:102DD000F894DEBF0FBECDBF8C011B01DC01149641
:102DE0008C918F77863009F4B2C068F4823008F491
:102DF000C0C0843008F483C0F80160817181C101D2
:102E00000E949A16B0C08C30B1F038F4883009F4C2
:102E100095C08A3009F47CC0ACC0803209F447C048
:102E2000803409F0A6C06BE5C1010E942416D801C8
:102E30000D911C9134C0F801C080D180E280F380F4
:102E4000A7019601C701B6010E946C27811191C0AC
:102E500020E030E0A901C701B6010E946C27882359
:102E600009F490C0A7019601C701B6010E94E928A4
:102E70009B01AC01C701B6010E946C27811182C081
:102E800078C0B101C8010E94D216C8010E947E0418
:102E90008C01892B39F06CE2C1010E9424160115C6
:102EA000110579F76DE5C1010E94241667C06BE733
:102EB000C1010E942416D8010D911C910115110524
:102EC000C9F0F80166817781C1010E949A166AE310
:102ED000C1010E942416B101C8010E94D216C80186
:102EE0000E947E048C01892B29F06CE2C1010E94B2
:102EF0002416E4CF6DE7C1010E94241634C0F80106
:102F00004281538160817181C1010E9439162BC0B9
:102F1000F801C080D180E280F380F7FE0CC06DE242
:102F2000C1010E94241644275527BA014C195D0996
:102F30006E097F0908C0B701A60105C0F8014081EC
:102F4000518162817381C1010E944E160CC0F8014B
:102F50008081882319F062EF72E002C067EF72E0AF
:102F6000C1010E94C816D10112968D919C911397B0
:102F70009DC16DEE72E0C1010E94C816F10182810F
:102F8000938194C120E030E0A901C701B6010E94FD
:102F90006C2787FF08C06DE2C1010E942416F7FA72
:102FA000F094F7F8F09420E836E948E15BE4C701D3
:102FB000B6010E94FD2987FD37C0812C912C70E25B
:102FC000A72EB12C188E1F8A84010C5E1F4FF801AA
:102FD000E759FC4F2591359145915491C701B601B0
:102FE0000E94FD2987FD13C0F801E75CFC4F259185
:102FF000359145915491C701B6010E94D2276B01CA
:103000007C018F89988D8A0D9B1D988F8F8BB5942D
:10301000A79494E0891A9108A8EE8A16AFEF9A0651
:1030200099F699249A9407C040E2A42EB12C55E059
:10303000952E188E1F8A20E030E0A901C701B60145
:103040000E94FD2918160CF036C02CEA35EC47E238
:1030500057E3C701B6010E946C27181664F1BFEF51
:103060009B1649F1E92DF4E0EF0280011124F801EB
:10307000EF5AFC4F6591759185919491A701960146
:103080000E94FD2918169CF4F801E759FC4F259180
:10309000359145915491C701B6010E94D2276B0129
:1030A0007C018F89988D8A199B09988F8F8BB59495
:1030B000A7949A94D4CFC701B6010E94CE294B01A0
:1030C0005C012B013C0106E080E492E4AFE0B0E05B
:1030D000898F9A8FAB8FBC8F102F01509AE04916C1
:1030E000510461047104C8F0698D7A8D8B8D9C8DBB
:1030F0002AE030E040E050E00E949B28298F3A8F80
:103100004B8F5C8FC301B2012AE030E040E050E019
:103110000E949B2829013A01DFCFC501B4010E941A
:1031200071279B01AC01C701B6010E94E8286B0121
:103130007C01698D7A8D8B8D9C8D0E9471279B01FE
:10314000AC01C701B6010E94D2272B013C010E94AD
:10315000CE296B017C010E9471279B01AC01C30148
:10316000B2010E94E8289B01AC010E94E9280E945C
:10317000CE29C60ED71EE81EF91E898D9A8DAB8DFD
:10318000BC8DC816D906EA06FB06F8F09FEF891A2F
:10319000990AA90AB90AAF89B88DAB2B99F0BAE0A0
:1031A0008B169104A104B10468F0EF89F88D319673
:1031B000F88FEF8BC12CD12C7601812C912C5401EE
:1031C000839403C0C12CD12C76019AE0492E512C56
:1031D000612C712CC701B601A30192010E949B28AA
:1031E000672B682B692B31F4111624F469017A01DD
:1031F0001150F0CFB501A401C1010E944E16112358
:1032000039F1012F4E01F1E18F0E911C54018AE03A
:10321000482E512C612C712C015068F0C701B60169
:10322000A30192010E949B28605DD4016E934D0121
:1032300069017A01F1CFB501611B71098EE2FB01D1
:103240008293BF01A5014E1B5F0BC1010E9439167D
:103250008F89988D892B09F491CE65E6C1010E9472
:103260002416AF89B88DB7FF0AC06DE2C1010E9474
:1032700024168F89988D91958195910902C08F8927
:10328000988DFE0177969F010AE010E0B8010E9438
:10329000CC28805D8293CB010097C1F7A9014E1B1A
:1032A0005F0BBF01C1010E94391668CE6C960FB644
:1032B000F894DEBF0FBECDBFDF91CF911F910F916C
:1032C000FF90EF90DF90CF90BF90AF909F908F9046
:1032D0007F906F905F904F903F902F900895982F20
:1032E00080ED890F8A3020F081EA890F8C3110F44B
:1032F00081E008958FEB890F8A31D0F39B32C1F3BF
:1033000081E09D3221F09E3219F080E00895089509
:103310000895CF92DF92EF92FF920F931F93CF9376
:10332000DF93EC018C85811134C009851A850E94D8
:10333000C30ED80118966D937D938D939C931B9724
:10334000D801ED91FC910284F385E02DC801199517
:1033500097FF29C00E94C30EF801C084D184E28483
:10336000F384DC01CB018C199D09AE09BF09C4802F
:10337000D580E680F7808C159D05AE05BF0500F36E
:103380008FEF9FEF97FF02C080E090E08B8781E096
:103390008C878B85DF91CF911F910F91FF90EF90DC
:1033A000DF90CF9008959927EDCF9F92AF92BF9273
:1033B000CF92DF92EF92FF920F931F93CF93DF9301
:1033C00000D01F921F92CDB7DEB78C010E948919E1
:1033D000D82EF8011486E12CF12C70EFC72EC8010D
:1033E0000E948919F8011486D81609F44FC0882361
:1033F000C1F08C3509F045C0C8010E9489198823A5
:1034000081F0853719F0ECEDF2E032C0F801148656
:1034100064E0962EA12CB12CC8010E94891981115B
:1034200006C0F801E15BFF4F82E090E00EC08134FE
:1034300014F490ED02C08F7D99EC980F903148F014
:10344000F801E15BFF4F83E090E09183808380E0AF
:1034500090C054E0AA0CBB1C5A95E1F7A92AF801C8
:1034600014869A949110D8CF21C0891729F03296EA
:1034700090819111FACFE4CF8181882309F3F8017B
:103480001486682FC8010E945502A9CF60E0C801C8
:103490000E945502F80182819381892B29F4E15B16
:1034A000FF4F84E090E0D1CF81E063C0C501985D1B
:1034B0008115944020F47501F3E0FF2290CFC501FF
:1034C0009C5D8115944068F4C50193705701BA2C36
:1034D000AA24BB0CBB0C8A299B29A0E0B0E0119662
:1034E00003C0C501A0E0B0E0198280389105A105B4
:1034F000B10530F48A835E0183E0A80EB11C2FC0B1
:10350000282F2F7320682A8336E0B695A7959795C4
:1035100087953A95D1F78032910538F4806C8B838A
:103520005E01E4E0AE0EB11C1AC0282F2F73206894
:103530002B8326E0969587952A95E1F780319105B2
:1035400038F4806E8C835E01F5E0AF0EB11C07C0CD
:1035500080688C83CD825E0126E0A20EB11CF5014D
:1035600062915F01662309F43ACFC8010E945502B7
:10357000F6CF0F900F900F900F900F90DF91CF919B
:103580001F910F91FF90EF90DF90CF90BF90AF9081
:103590009F9008951F93CF93DF93EC01162F0E9405
:1035A0008919811303C01C8681E001C080E0DF918E
:1035B000CF911F910895CF93DF93EC01CE010E942C
:1035C00089198B302CF48930B4F4882331F015C07C
:1035D0008D3089F0803289F40EC08885811103C056
:1035E00081E090E002C082E090E0C15BDF4F998310
:1035F000888380E004C01C86E1CF81E08887DF916A
:10360000CF910895CF93DF9300D01F921F92CDB733
:10361000DEB7009799F1FC0184818F778630D9F06D
:1036200078F4843058F1808191811D82BE016F5FF2
:103630007F4F0E94AF02CE0101960E94021B21C063
:103640008A3081F08C30A9F08830C1F460817181BA
:103650008281938104C0608170E080E090E00E94EC
:1036600071270FC060817181828193810E947327CD
:1036700008C0608171818281938103C060E070E045
:10368000CB010F900F900F900F900F90DF91CF9183
:103690000895FC01248125FF05C0808191810E944D
:1036A000DC15089580E090E0089508950895089548
:1036B0009F92AF92BF92CF92DF92EF92FF920F93C1
:1036C0001F93CF93DF93EC018B01E22E0E94DB1A54
:1036D000F82E8823E1F1CE010E948919873209F47E
:1036E000B4C024F4823209F4B0C0D3C08B3521F0C9
:1036F0008B3709F448C0CDC060E4C80104960E942D
:10370000FF15F8011182108213821282E11005C0A8
:10371000C15BDF4F85E090E018C01C86CE010E949F
:10372000DB1A8823A1F06DE5CE010E94CA1A81112F
:1037300044C1EA946D857E85C8010E9421040097EA
:1037400041F4C15BDF4F84E090E099838883F12CE2
:1037500034C12E2D40E0BC01CE010E94581B8823AD
:10376000B1F3CE010E94DB1A882389F36DE5CE0107
:103770000E94CA1A811121C16CE2CE010E94CA1AAC
:103780008111D8CF5DC060E2C80104960E94FF1588
:10379000F8011182108213821282EE2009F4B8CF50
:1037A0001C86CE010E94DB1A882389F26DE7CE01C8
:1037B0000E94CA1A811101C1EA94E881F9818281CB
:1037C00093819B838A838481958122813381821BAB
:1037D000930B9F838E831D821C82CE010E948919C8
:1037E000873209F475C0823209F472C0CE010E949A
:1037F0008919D82E0E946F19882311F11C866D2D0E
:10380000CE010E945502CE010E948919D82E0E9435
:103810006F198111F3CF60E0CE010E9455028A81B9
:103820009B81892B09F48DCFCE010E94DB1A88235E
:1038300009F48DCF6AE3CE010E94CA1A81114EC0ED
:10384000C15BDF4F83E090E080CFE881F981828126
:1038500093819B838A838481958122813381821B1A
:10386000930B9F838E831D821C82CE010E94D519EB
:10387000F82E882309F46BCFCE010E947402EC016C
:1038800065E0C80104960E94FF15F801D183C0834A
:1038900094C0CE010E948919B82E6E01FFE0CF0EB0
:1038A000D11CE12CAC2C9D2C8B2D0E946F198823F0
:1038B00009F453C08FE3E81609F44FC01C86E39463
:1038C000F601B1926F01CE010E948919B82EECCF9A
:1038D000CE010E94D5198111A7CF39CF6A817B8192
:1038E000F801808191810E94DC15009711F0BC01E4
:1038F00013C0CE010E9474026C016D857E85C801E3
:103900000E942104FC01892B09F41BCF848180686B
:103910008483D782C682BF012E2D40E0CE010E9453
:10392000581B882309F413CFCE010E94DB1A882389
:1039300009F40DCF6DE7CE010E94CA1A81113DC076
:103940006CE2CE010E94CA1A882309F479CFCE0115
:103950000E94DB1A811131CFFACEFE01EE0DF11D6E
:1039600017868F85843781F466E0C80104960E942B
:10397000FF1581E0F8018083F4E0EF16F1F0C15B00
:10398000DF4F82E090E0E1CE863649F466E0C80180
:1039900004960E94FF15F8011082F5E0EECF8E36F6
:1039A00021F484E0E812EBCF08C0B8018A2D992DEC
:1039B0000E94AF02882309F443CF8F2DDF91CF916E
:1039C0001F910F91FF90EF90DF90CF90BF90AF903D
:1039D0009F900895FC010E96918380839383828348
:1039E000009721F09F012E5F3D4F02C020E030E0A4
:1039F00035832483892B21F0CF018E5F9D4F02C038
:103A000080E090E0978386831086158608958F92D4
:103A10009F92AF92BF92CF92DF92EF92FF920F935D
:103A20001F93CF93DF93CDB7DEB7C356D2400FB607
:103A3000F894DEBF0FBECDBF8E010F5F1F4FC801D0
:103A40000E94EA1C89819A819C838B838F8198854F
:103A50009E838D8319861E86C45ADD4F1983088381
:103A6000CC55D24088E0FE01E45AFD4FDE01AC5A4D
:103A7000BD4F01900D928A95E1F7CC5ADD4F198325
:103A80000883C455D24088E0FE01EC5AFD4FDE01A8
:103A9000AD5FBD4F01900D928A95E1F7C55FDD4F97
:103AA0001882CB50D24085E494E0C45FDD4F998307
:103AB0008883CC50D240C15FDD4F1882CF50D240B6
:103AC000C05FDD4F19830883C051D240CE5ADD4F0D
:103AD00019821882C255D2402AE040E0BE01665FDA
:103AE0007F4FCE018D5F9D4F0E94581BCE5ADD4FF8
:103AF00008811981C255D2400115110579F4C25FC0
:103B0000DD4F8881CE50D240882331F08E8583FFEF
:103B100003C003E010E002C000E010E01092D80300
:103B20000115110509F02BC165E872E0CE010A9676
:103B30000E94491B0E945704811110C065E872E081
:103B4000CE010A960E94491B0E94021B6093D0037B
:103B50007093D1038093D2039093D3036EE872E005
:103B6000CE010A960E94491B0E94570481110EC083
:103B70006EE872E0CE010A960E94491B0E94021B69
:103B80000E94CE297093D5036093D4036DEF72E049
:103B9000CE010A960E94491B0E945704182F8111DA
:103BA00034C06DEF72E0CE010A960E94491BFC0101
:103BB000892B49F194819F77983061F030F49923F3
:103BC00011F19630F9F410811EC09A3019F09C3032
:103BD00059F018C011E080819181A281B381892BB5
:103BE0008A2B8B2B81F40CC011E020E030E0A9017E
:103BF00060817181828193810E946C27811103C051
:103C000010E001C011E01093D60363E073E0CE0131
:103C10000A960E94491B0E9457048111C1C010924C
:103C20005B0563E073E0CE010A960E94491B009792
:103C300021F062E070E00E9462040E94021B6B01AE
:103C40007C0163E073E0CE010A960E94491B009755
:103C500021F061E070E00E9462040E94021B4B01AF
:103C60005C0163E073E0CE010A960E94491B009755
:103C700021F060E070E00E9462040E94021B6093E9
:103C800045057093460580934705909348058092BB
:103C9000490590924A05A0924B05B0924C05C092FE
:103CA0004D05D0924E05E0924F05F092500563E02D
:103CB00073E0CE010A960E94491B009721F063E051
:103CC00070E00E9462040E94021B60937105709371
:103CD0007205809373059093740563E073E0CE01E1
:103CE0000A960E94491B009721F064E070E00E9450
:103CF00062040E94021B60935705709358058093DD
:103D0000590590935A058091510590915205892B40
:103D100009F446C08091530590915405892B09F40C
:103D20003FC081E080935B050E94C30E0091610556
:103D3000109162052091630530916405DC01CB018F
:103D4000800F911FA21FB31F8093690590936A058E
:103D5000A0936B05B0936C0510925C0510927905E9
:103D600010927A0510927B0510927C0510927D05C9
:103D700010927E0510927F051092800511C08BE095
:103D800093E00E94E41E000F111FF801E95EFD4F51
:103D9000808191810E94E41E89ED92E00E94E41EE0
:103DA000CD59DD4F0FB6F894DEBF0FBECDBFDF910A
:103DB000CF911F910F91FF90EF90DF90CF90BF9028
:103DC000AF909F908F900895009769F0FC0101904B
:103DD0000020E9F73197AF01481B590BBC0185E47E
:103DE00094E00C941A0F80E090E00895CF93DF9355
:103DF000EA0191E0909338048093370410923604DE
:103E00001092350489E394E00E94DA08688189E31E
:103E100094E00E94DA0861E089E394E00E94EB0BF1
:103E200091E0811190E0892FDF91CF9108958F92D9
:103E30009F92AF92BF92CF92DF92EF92FF920F9339
:103E40001F93CF93DF93F82ED62FE42E613208F024
:103E5000BBC00E949E0E4B015C01C0912F04CC237D
:103E600031F18091310490913204A0913304B091EA
:103E70003404892B8A2B8B2B81F30E949E0E009198
:103E80003104109132042091330430913404DC0168
:103E9000CB0188199909AA09BB09081719072A072C
:103EA0003B07D8F6809130040E94600A8DC081E003
:103EB00080932F04E0920E049FEF90930D041092D4
:103EC0000C049D0F90930B0480930A0490910A04B4
:103ED0008F2D880F892B80930A04809109048130EB
:103EE00089F5109209040E949E0E6B017C0180915D
:103EF0000A048093BB008091310490913204A09118
:103F00003304B0913404892B8A2B8B2BA9F00E94A7
:103F10009E0E8090310490903204A0903304B090B3
:103F20003404DC01CB018C199D09AE09BF09881648
:103F30009906AA06BB0690F18091BC0083FDD7CFFD
:103F400085EC01C085EE8093BC000E949E0E6B0143
:103F50007C0180912F04813031F580913104909162
:103F60003204A0913304B0913404892B8A2B8B2B1B
:103F700081F30E949E0E8090310490903204A090B4
:103F80003304B0903404DC01CB018C199D09AE09D7
:103F9000BF0988169906AA06BB06D8F68091300498
:103FA0000E94600A12C080910C048D1710F4D09109
:103FB0000C04E9EEF3E0AFE0B4E0C0E0CD1729F087
:103FC00081918D93CF5FFACFC0E08C2FDF91CF919D
:103FD0001F910F91FF90EF90DF90CF90BF90AF9027
:103FE0009F908F900895CF92DF92EF92FF920F9360
:103FF0001F93CF93DF931F921F92CDB7DEB7FC01C3
:104000004787508B618B728B8285882311F04487A0
:1040100001C04387452F562F672F7727882311F03C
:10402000438701C044877F018BE0E80EF11C968135
:10403000878199838A83C080D180C114D104B1F172
:10404000018510E098012E5F3F4FD60114968D91A7
:104050009C9115978217930710F480E052C0F601E7
:10406000808191E090933804809337041092360455
:10407000109235040115110541F421E042E050E0B1
:10408000B701C6010E94D70C3CC081819281DC013E
:10409000ED91FC910280F381E02DA801BE016F5FDC
:1040A0007F4F199508171907C1F6E7CFA281B38191
:1040B000109799F22481358101852330310539F437
:1040C0008E7F89839A8310E00F5F1F4F11C02115E7
:1040D000310511F49F770AC02230310511F4906840
:1040E00005C02130310519F49F779064998310E061
:1040F0009E012F5F3F4F42E050E0B701CD010E948B
:10410000F8090F900F90DF91CF911F910F91FF90C1
:10411000EF90DF90CF900895EF92FF920F931F934F
:10412000CF93DF93EC018B017A018C818F7749F477
:1041300060E2CE0104960E94FF15198218821B824C
:104140001A828C8185FF18C001151105A9F0B801EC
:10415000888199810E94DC15009781F4B701CE0116
:104160000E942104FC01892B39F084818F7784839C
:1041700017830683CF0102C080E090E0DF91CF91EA
:104180001F910F91FF90EF9008958F929F92AF92A1
:10419000BF92CF92DF92EF92FF920F931F93CF9334
:1041A000DF93EC014B016A01590188819981892BC8
:1041B00031F0EA81FB81808191810E94C60960E033
:1041C0008B850E94C9097401C80CD91CEC14FD042C
:1041D00039F0F70161917F01CE010E940F09F6CFFE
:1041E00075010A0D1B1D0E151F0541F06FEFCE0165
:1041F0000E940F09F70181937F01F5CF61E08B8564
:104200000E94C90981E0DF91CF911F910F91FF902A
:10421000EF90DF90CF90BF90AF909F908F900895D8
:10422000CF93DF93CDB7DEB7A6970FB6F894DEBF76
:104230000FBECDBF789484B5826084BD84B58160A3
:1042400084BD85B5826085BD85B5816085BD809161
:104250006E00816080936E001092810080918100D9
:1042600082608093810080918100816080938100D1
:10427000809180008160809380008091B100846093
:104280008093B1008091B00081608093B0008091F4
:104290009100826080939100809191008160809371
:1042A0009100809190008160809390008091A100A6
:1042B00082608093A1008091A10081608093A10021
:1042C0008091A00081608093A00080912101826094
:1042D000809321018091210181608093210180914F
:1042E000200181608093200180917A008460809316
:1042F0007A0080917A00826080937A0080917A00BF
:10430000816080937A0080917A00806880937A003F
:104310001092C100E0915504F091560482E0808330
:10432000E0915104F09152041082E0915304F09115
:10433000540480E1808310925D04E0915904F0916F
:104340005A0486E08083E0915704F09158048081FC
:1043500080618083E0915704F091580480818860E7
:104360008083E0915704F0915804808180688083B5
:10437000E0915704F091580480818F7D808361E043
:10438000809191050E94570E60E0809191050E94F6
:10439000C90960E0809190050E94570E80919A05AE
:1043A00090919B05892BA9F486E090E00E94022A57
:1043B000FC0180919D05808389E394E09283818351
:1043C000138280E290E095838483F0939B05E093D1
:1043D0009A05E0909A05F0909B0510926303109265
:1043E000620310923604109235040E94420A87E557
:1043F00098E090935F0380935E0388E598E0909344
:1044000061038093600311E0D70113961C93C701E9
:104410000E94C50D882309F45BC080E090E1A0E014
:10442000B0E080939E0590939F05A093A005B09364
:10443000A1058AE090E0A0E0B0E08093A20590930F
:10444000A305A093A405B093A50580E090E0A0E0AB
:10445000B0E48093A6059093A705A093A805B09318
:10446000A90580919A0590919B051BA21CA21DA2F3
:104470001EA29D8B8C8B1F8A1E8A1D8F85E090E06B
:104480009B8F8A8F1E8F02E00C8F40E050E160E02E
:1044900070E0CE0144960E94F31F80919A0590919E
:1044A0009B05188A198A1A8A1B8A9A8389831C8217
:1044B0001B821A8718861F821B8709874FE959E3D9
:1044C00060E070E0CE0101960E94F31F80939C058E
:1044D00000E915E07801512C41E8642E42E0742E89
:1044E00057EC852E52E0952E6BECC62E67E0D62E4B
:1044F0007BE8A72EBB24B394F70194818281D80175
:104500005A968C935A975B969C9361E00E94570E43
:1045100061E0F801838D0E94570ED70118969C9197
:10452000189716968C91F801868F978F61E00E94FC
:10453000570E60E0D8015F968C910E94570E61E0A3
:10454000F801868D0E94C9094FB6F8948091D9036D
:10455000811126C0F3018491F4012491E82FF0E049
:10456000EE0FFF1FE25EFC4FA591B4919C91822F4C
:10457000892321F461E085E30E94C90961E085E3B4
:104580000E94570E8CB580618CBD8CB580648CBD4B
:1045900061E084E30E94570E61E083E30E94570EBE
:1045A0008091D9038F5F8093D9034FBEC6010197D5
:1045B000F1F760E0D8015E968C910E94C90988E805
:1045C0000E94B91483E00E94B91461E0F801868D5D
:1045D0000E94C909C6010197F1F760E0D8015E9613
:1045E0008C910E94C90988E90E94B91480E00E9458
:1045F000B91480E00E94B91480E00E94B91480E0F0
:104600000E94B91461E0F801868D0E94C909C501B4
:104610000197F1F760E0D8015E968C910E94C9097C
:1046200080EE0E94B91461E0F801868D0E94C909EC
:104630005394FFEFEF1AFF0A0E5F1F4F82E05812EC
:104640005BCF01E023E042E06BE6809181050E94B0
:104650008B1500E022E044E06BE1809181050E942F
:104660008B1522E044E06CE1809181050E948B155E
:10467000F090810508EE13E09E012C5E3F4F41E073
:104680006BE68F2D0E94C0148C898F7B8C8B898365
:10469000AE014F5F5F4F6BE68F2D0E94F61E50926A
:1046A000C90383E08093CA0362E082E00E94570E50
:1046B00062E08091CA030E94570E9091C903923024
:1046C00009F495C1933009F494C18EEE890F8430BA
:1046D00068F487E1891B8EC1823009F0ACC18091FA
:1046E00069008C7F826080936900E89A84E690E09C
:1046F000A0E0B0E08093340590933505A093360593
:10470000B093370586EF91E090933305809332059F
:1047100081E080933C050E94C30E00913405109106
:1047200035052091360530913705DC01CB01800F2E
:10473000911FA21FB31F8093380590933905A09352
:104740003A05B0933B0580913D0590913E05A091BF
:104750003F05B09140058093410590934205A09399
:104760004305B09344058EEF91E09093200580932C
:104770001F0580E090E0A0E8BEE38093450590939C
:104780004605A0934705B09348058DEC9CECACEC36
:10479000BDE38093490590934A05A0934B05B093E0
:1047A0004C0510924D0510924E0510924F05109237
:1047B000500587E59BE1909352058093510586E56E
:1047C0009BE1909354058093530585E59BE190937D
:1047D0005605809355058FE692E1A3E8BAE38093EE
:1047E000710590937205A0937305B093740588ECDE
:1047F00090E0A0E0B0E08093610590936205A09303
:104800006305B09364058DEC9CECACE4BEE380934F
:104810005D0590935E05A0935F05B093600511E080
:104820008091D80381110E94071D8091D7038111C7
:104830000E948B048091D603882309F463C0809181
:10484000D4039091D503A0E0B0E08093210590932C
:104850002205A0932305B093240580911F05909114
:104860002005892B51F1109329050E94C30EC09099
:104870002105D0902205E0902305F0902405DC016D
:10488000CB018C0D9D1DAE1DBF1D80932505909302
:104890002605A0932705B093280580912A059091BD
:1048A0002B05A0912C05B0912D0580932E0590939A
:1048B0002F05A0933005B093310581E090E0A0E092
:1048C000B0E080932A0590932B05A0932C05B0931C
:1048D0002D05C090D003D090D103E090D203F0908A
:1048E000D303B701A6018AEA95E00E94F712B70147
:1048F000A60170588CEA95E00E94F7121092D60338
:104900001093CF0382E395E00E94AB128FE195E014
:104910000E94AB120E94C30EC0906905D0906A0538
:10492000E0906B05F0906C056C157D058E059F057C
:1049300008F45AC080915B05882309F455C00E9491
:10494000C30EC0906105D0906205E0906305F090C1
:104950006405DC01CB018C0D9D1DAE1DBF1D809338
:10496000690590936A05A0936B05B0936C05C090A0
:104970005705D0905805E0905905F0905A05E09100
:104980005105F091520519959B01AC01C701B60183
:104990000E94E8286B017C019F772091710530917E
:1049A000720540917305509174050E946C2787FF32
:1049B0005EC010935C0510925B05E0915505F09187
:1049C0005605309709F019958091690590916A050F
:1049D000A0916B05B0916C0580936D0590936E0569
:1049E000A0936F05B09370050E94201019CF80E04E
:1049F00001C081E0E82FF0E0EE0FFF1FE050FE4F16
:104A000022E132E031832083833041F480916900D8
:104A1000837F886080936900E99A68CE843098F437
:104A2000813009F059CE80916A00837F886080933D
:104A30006A00ED9A5BCE80916A008C7F82608093E1
:104A40006A00EC9A53CE843041F4809169008F7CE7
:104A5000806280936900EA9A49CE853061F780913F
:104A600069008F73806880936900EB9A3FCE209035
:104A70005305309054050E94C30E80906D059090B0
:104A80006E05A0906F05B0907005DC01CB01881910
:104A90009909AA09BB098093650590936605A093BF
:104AA0006705B09368052091790530917A054091AA
:104AB0007B0550917C05C701B6010E94E9286093EF
:104AC000790570937A0580937B0590937C0580909F
:104AD000750590907605A0907705B0907805A501B2
:104AE00094010E94FD29181644F480927905909251
:104AF0007A05A0927B05B0927C05B7FAB094B7F81E
:104B0000B094A50194016091790570917A05809126
:104B10007B0590917C050E946C2787FF08C08092DE
:104B2000790590927A05A0927B05B0927C058090E1
:104B30005D0590905E05A0905F05B09060052091A6
:104B4000790530917A0540917B0550917C05609103
:104B5000490570914A0580914B0590914C050E9442
:104B6000D227A50194010E94D2272B013C0120915C
:104B70004505309146054091470550914805C701CC
:104B8000B6010E94D2279B01AC01C301B2010E9471
:104B9000E9282B013C0120917D0530917E05409153
:104BA0007F0550918005C701B6010E94E828209139
:104BB0004D0530914E0540914F05509150050E9492
:104BC000D227A50194010E9455299B01AC01C30184
:104BD000B2010E94E928C0927D05D0927E05E09244
:104BE0007F05F0928005F1011995EECE80919A052E
:104BF00090919B050C949A2A10923C0410923B04CD
:104C000088EE93E0A0E0B0E080933D0490933E04F2
:104C1000A0933F04B093400420E332E030933A0481
:104C20002093390410924804109247048093490459
:104C300090934A04A0934B04B0934C0482E492E016
:104C4000909346048093450485EC90E09093520441
:104C50008093510484EC90E0909354048093530427
:104C600080EC90E0909356048093550481EC90E0A2
:104C7000909358048093570482EC90E090935A04E8
:104C80008093590486EC90E090935C0480935B04DD
:104C900010925E0410925F041092600410926104FE
:104CA0008CE08093900584E28093910585E0809369
:104CB000920596E0909393059EE1909394059FE171
:104CC0009093950592E29093960593E290939705C1
:104CD00094E49093980595E49093990510929B0520
:104CE00010929A0590E490939D051092A20510925F
:104CF000A3051092A4051092A5051092A605109286
:104D0000A7051092A8051092A90598E0E3E2F2E049
:104D1000A2EBB5E001900D929A95E1F740E050E0EA
:104D200060EA70E44093BA055093BB056093BC05FC
:104D30007093BD05E0911E05EC3080F491E09E0F6C
:104D400090931E05E093BE058E9FF0011124EE5155
:104D5000FB4F88EB9BE09283818303C08FEF8093AE
:104D6000BE0588E6809381051092450510924605A0
:104D700010924705109248051092490510924A0575
:104D800010924B0510924C0510924D0510924E0555
:104D900010924F0510925005109252051092510535
:104DA0001092540510925305109256051092550515
:104DB00010925705109258051092590510925A05F5
:104DC00010925B0510925C051092690510926A05BD
:104DD00010926B0510926C0510926D0510926E0585
:104DE00010926F051092700580E090E0A0EAB0E4A8
:104DF0008093710590937205A0937305B093740529
:104E000080E090E0A8ECB2E480937505909376057D
:104E1000A0937705B09378051092790510927A05E2
:104E200010927B0510927C0510927D0510927E05F4
:104E300010927F051092800510923405109235056E
:104E400010923605109237051092380510923905E8
:104E500010923A0510923B058FEF9FEFDC01809393
:104E60003D0590933E05A0933F05B0934005809388
:104E7000410590934205A0934305B09344051092D9
:104E80003C051092330510923205109221051092C4
:104E900022051092230510922405109225051092E8
:104EA0002605109227051092280580932A059093D5
:104EB0002B05A0932C05B0932D0580932E05909380
:104EC0002F05A0933005B09331051092290510925B
:104ED000200510921F0508950E94AE2708F481E076
:104EE0000895E89409C097FB3EF4909580957095DD
:104EF00061957F4F8F4F9F4F9923A9F0F92F96E926
:104F0000BB279395F695879577956795B795F1119A
:104F1000F8CFFAF4BB0F11F460FF1BC06F5F7F4F37
:104F20008F4F9F4F16C0882311F096E911C0772349
:104F300021F09EE8872F762F05C0662371F096E852
:104F4000862F70E060E02AF09A95660F771F881F21
:104F5000DAF7880F9695879597F90895990F0008C5
:104F6000550FAA0BE0E8FEEF16161706E807F9073B
:104F7000C0F012161306E407F50798F0621B730BD6
:104F8000840B950B39F40A2661F0232B242B252B57
:104F900021F408950A2609F4A140A6958FEF811DFA
:104FA000811D08950E94E5270C9456280E944828E8
:104FB00038F00E944F2820F0952311F00C943F28E0
:104FC0000C94452811240C948A280E94672870F3B9
:104FD000959FC1F3950F50E0551F629FF001729F9E
:104FE000BB27F00DB11D639FAA27F00DB11DAA1FAD
:104FF000649F6627B00DA11D661F829F2227B00DFA
:10500000A11D621F739FB00DA11D621F839FA00D84
:10501000611D221F749F3327A00D611D231F849FD4
:10502000600D211D822F762F6A2F11249F5750402B
:105030009AF0F1F088234AF0EE0FFF1FBB1F661FA6
:10504000771F881F91505040A9F79E3F510580F06F
:105050000C943F280C948A285F3FE4F3983ED4F3E5
:10506000869577956795B795F795E7959F5FC1F713
:10507000FE2B880F911D9695879597F9089597F9BE
:105080009F6780E870E060E008959FEF80EC0895EE
:1050900000240A9416161706180609060895002417
:1050A0000A9412161306140605060895092E039491
:1050B000000C11F4882352F0BB0F40F4BF2B11F405
:1050C00060FF04C06F5F7F4F8F4F9F4F089557FD64
:1050D0009058440F551F59F05F3F71F04795880F66
:1050E00097FB991F61F09F3F79F0879508951216FD
:1050F00013061406551FF2CF4695F1DF08C01616A9
:1051000017061806991FF1CF869571056105089459
:105110000895E894BB2766277727CB0197F9089570
:105120000E94BD28A59F900DB49F900DA49F800D57
:10513000911D11240895A1E21A2EAA1BBB1BFD018B
:105140000DC0AA1FBB1FEE1FFF1FA217B307E40766
:10515000F50720F0A21BB30BE40BF50B661F771FBE
:10516000881F991F1A9469F760957095809590959E
:105170009B01AC01BD01CF010895A29FB001B39F77
:10518000C001A39F700D811D1124911DB29F700D50
:10519000811D1124911D0895AA1BBB1B51E107C05D
:1051A000AA1FBB1FA617B70710F0A61BB70B881FB7
:1051B000991F5A95A9F780959095BC01CD01089546
:1051C000EE0FFF1F881F8BBF0790F691E02D1994FB
:1051D0005058BB27AA270E9400290C9456280E94E9
:1051E000482838F00E944F2820F039F49F3F19F4E6
:1051F00026F40C9445280EF4E095E7FB0C943F2828
:10520000E92F0E94672858F3BA17620773078407CB
:10521000950720F079F4A6F50C9489280EF4E09512
:105220000B2EBA2FA02D0B01B90190010C01CA0160
:10523000A0011124FF27591B99F0593F50F4503E0B
:1052400068F11A16F040A22F232F342F4427585FFD
:10525000F3CF469537952795A795F0405395C9F715
:105260007EF41F16BA0B620B730B840BBAF09150CD
:10527000A1F0FF0FBB1F661F771F881FC2F70EC06C
:10528000BA0F621F731F841F48F48795779567953F
:10529000B795F7959E3F08F0B0CF9395880F08F02B
:1052A0009927EE0F9795879508950E9469290C9488
:1052B00056280E944F2858F00E94482840F029F4B0
:1052C0005F3F29F00C943F2851110C948A280C94CC
:1052D00045280E94672868F39923B1F3552391F379
:1052E000951B550BBB27AA2762177307840738F055
:1052F0009F5F5F4F220F331F441FAA1FA9F335D0B2
:105300000E2E3AF0E0E832D091505040E695001C65
:10531000CAF72BD0FE2F29D0660F771F881FBB1F1F
:10532000261737074807AB07B0E809F0BB0B802DFD
:10533000BF01FF2793585F4F3AF09E3F510578F029
:105340000C943F280C948A285F3FE4F3983ED4F3F2
:10535000869577956795B795F7959F5FC9F7880FFD
:10536000911D9695879597F90895E1E0660F771F4F
:10537000881FBB1F621773078407BA0720F0621BE0
:10538000730B840BBA0BEE1F88F7E09508950E940B
:10539000CE296894B1110C948A2808950E946F2830
:1053A00088F09F5798F0B92F9927B751B0F0E1F0E6
:1053B000660F771F881F991F1AF0BA95C9F714C096
:1053C000B13091F00E948928B1E008950C948928A9
:1053D000672F782F8827B85F39F0B93FCCF38695CF
:1053E00077956795B395D9F73EF49095809570952C
:1053F00061957F4F8F4F9F4F08950E94AE2708F40D
:105400008FEF08950F931F93CF93DF938230910511
:1054100010F482E090E0E091C105F091C20520E037
:1054200030E0A0E0B0E0309719F140815181028175
:10543000138148175907C8F08417950769F4109726
:1054400031F012960C93129713961C9327C0009379
:10545000C1051093C20522C02115310519F042176C
:10546000530718F49A01BD01EF01DF01F801DBCF0A
:1054700021153105F9F0281B390B2430310580F452
:105480008A819B816115710521F0FB0193838283E1
:1054900004C09093C2058093C105FE01329644C0BA
:1054A000FE01E20FF31F819391932250310939835A
:1054B00028833AC02091BF053091C005232B41F4C9
:1054C00020911302309114023093C0052093BF0540
:1054D00020911102309112022115310541F42DB7AE
:1054E0003EB74091150250911602241B350BE091F6
:1054F000BF05F091C005E217F307A0F42E1B3F0B88
:105500002817390778F0AC014E5F5F4F2417350735
:1055100048F04E0F5F1F5093C0054093BF05819325
:10552000919302C0E0E0F0E0CF01DF91CF911F91B5
:105530000F910895CF93DF93009709F481C0FC0188
:10554000329713821282A091C105B091C2051097C3
:1055500081F420813181820F931F2091BF0530910A
:10556000C0052817390751F5F093C005E093BF0532
:1055700067C0ED0120E030E0CE17DF0740F44A813C
:105580005B819E0141155105F1F0EA01F5CFD3830E
:10559000C28340815181840F951FC817D90759F4E0
:1055A00088819981840F951F0296918380838A81D7
:1055B0009B81938382832115310529F4F093C205E1
:1055C000E093C1053DC0E901FB83EA83499159910C
:1055D000C40FD51FEC17FD0761F480819181840F02
:1055E000951F0296E90199838883828193819B8329
:1055F0008A83E0E0F0E012968D919C9113970097DA
:1056000019F0FD01DC01F7CF8D919C9111979D015F
:105610002E5F3F4F820F931F2091BF053091C00531
:105620002817390769F4309729F41092C2051092AF
:10563000C10502C013821282B093C005A093BF05BA
:10564000DF91CF91089581E090E0F8940C94312B94
:10565000FB01DC018D91019080190110D9F3990BA8
:10566000089511E0C2ECD1E000E006C0802FFE01F9
:105670000E94E0282196011DC33CD10780E0080765
:06568000A9F7F894FFCF2A
:10568600190F190F190F190F190F190F190F190FD4
:10569600FF0000C305200022032503300340034D0D
:1056A60003560330003100320033000000000000D2
:1056B600DA08AD08450F8108A508910882080000A0
:1056C6000000B10F1A0F480FFE0F790F570F6B0F1F
:1056D60074696D6500706F7456657800656E635603
:1056E600657800676F616C006D6561737572656DD5
:1056F600656E747300766F6C7461676500637572AE
:1057060072656E740070756C736550574D007075D8
:105716006C736554696D6500696E50756C736500D0
:10572600616363656C5800616363656C590061630E
:1057360063656C5A006779726F58006779726F59A2
:10574600006779726F5A006973476F616C00616315
:105756007475616C54696D65000D0A002F2F222245
:105766005C5C6208660C6E0A720D7409006E756CDC
:105776006C00747275650066616C73650070756C9B
:10578600736500736574476F616C00646573657259
:1057960069616C697A652829206661696C65643A75
:1057A60020004F6B00456D707479496E70757400FA
:1057B600496E636F6D706C657465496E70757400C3
:1057C600496E76616C6964496E707574004E6F4DF2
:0E57D600656D6F727900546F6F4465657000E9
:00000001FF
